{
  "contractName": "ERC721A",
  "abi": [
    {
      "inputs": [
        {
          "internalType": "string",
          "name": "name_",
          "type": "string"
        },
        {
          "internalType": "string",
          "name": "symbol_",
          "type": "string"
        },
        {
          "internalType": "uint256",
          "name": "maxBatchSize_",
          "type": "uint256"
        },
        {
          "internalType": "uint256",
          "name": "collectionSize_",
          "type": "uint256"
        }
      ],
      "stateMutability": "nonpayable",
      "type": "constructor"
    },
    {
      "anonymous": false,
      "inputs": [
        {
          "indexed": true,
          "internalType": "address",
          "name": "owner",
          "type": "address"
        },
        {
          "indexed": true,
          "internalType": "address",
          "name": "approved",
          "type": "address"
        },
        {
          "indexed": true,
          "internalType": "uint256",
          "name": "tokenId",
          "type": "uint256"
        }
      ],
      "name": "Approval",
      "type": "event"
    },
    {
      "anonymous": false,
      "inputs": [
        {
          "indexed": true,
          "internalType": "address",
          "name": "owner",
          "type": "address"
        },
        {
          "indexed": true,
          "internalType": "address",
          "name": "operator",
          "type": "address"
        },
        {
          "indexed": false,
          "internalType": "bool",
          "name": "approved",
          "type": "bool"
        }
      ],
      "name": "ApprovalForAll",
      "type": "event"
    },
    {
      "anonymous": false,
      "inputs": [
        {
          "indexed": true,
          "internalType": "address",
          "name": "from",
          "type": "address"
        },
        {
          "indexed": true,
          "internalType": "address",
          "name": "to",
          "type": "address"
        },
        {
          "indexed": true,
          "internalType": "uint256",
          "name": "tokenId",
          "type": "uint256"
        }
      ],
      "name": "Transfer",
      "type": "event"
    },
    {
      "inputs": [],
      "name": "nextOwnerToExplicitlySet",
      "outputs": [
        {
          "internalType": "uint256",
          "name": "",
          "type": "uint256"
        }
      ],
      "stateMutability": "view",
      "type": "function"
    },
    {
      "inputs": [],
      "name": "totalSupply",
      "outputs": [
        {
          "internalType": "uint256",
          "name": "",
          "type": "uint256"
        }
      ],
      "stateMutability": "view",
      "type": "function"
    },
    {
      "inputs": [
        {
          "internalType": "uint256",
          "name": "index",
          "type": "uint256"
        }
      ],
      "name": "tokenByIndex",
      "outputs": [
        {
          "internalType": "uint256",
          "name": "",
          "type": "uint256"
        }
      ],
      "stateMutability": "view",
      "type": "function"
    },
    {
      "inputs": [
        {
          "internalType": "address",
          "name": "owner",
          "type": "address"
        },
        {
          "internalType": "uint256",
          "name": "index",
          "type": "uint256"
        }
      ],
      "name": "tokenOfOwnerByIndex",
      "outputs": [
        {
          "internalType": "uint256",
          "name": "",
          "type": "uint256"
        }
      ],
      "stateMutability": "view",
      "type": "function"
    },
    {
      "inputs": [
        {
          "internalType": "bytes4",
          "name": "interfaceId",
          "type": "bytes4"
        }
      ],
      "name": "supportsInterface",
      "outputs": [
        {
          "internalType": "bool",
          "name": "",
          "type": "bool"
        }
      ],
      "stateMutability": "view",
      "type": "function"
    },
    {
      "inputs": [
        {
          "internalType": "address",
          "name": "owner",
          "type": "address"
        }
      ],
      "name": "balanceOf",
      "outputs": [
        {
          "internalType": "uint256",
          "name": "",
          "type": "uint256"
        }
      ],
      "stateMutability": "view",
      "type": "function"
    },
    {
      "inputs": [
        {
          "internalType": "uint256",
          "name": "tokenId",
          "type": "uint256"
        }
      ],
      "name": "ownerOf",
      "outputs": [
        {
          "internalType": "address",
          "name": "",
          "type": "address"
        }
      ],
      "stateMutability": "view",
      "type": "function"
    },
    {
      "inputs": [],
      "name": "name",
      "outputs": [
        {
          "internalType": "string",
          "name": "",
          "type": "string"
        }
      ],
      "stateMutability": "view",
      "type": "function"
    },
    {
      "inputs": [],
      "name": "symbol",
      "outputs": [
        {
          "internalType": "string",
          "name": "",
          "type": "string"
        }
      ],
      "stateMutability": "view",
      "type": "function"
    },
    {
      "inputs": [
        {
          "internalType": "uint256",
          "name": "tokenId",
          "type": "uint256"
        }
      ],
      "name": "tokenURI",
      "outputs": [
        {
          "internalType": "string",
          "name": "",
          "type": "string"
        }
      ],
      "stateMutability": "view",
      "type": "function"
    },
    {
      "inputs": [
        {
          "internalType": "address",
          "name": "to",
          "type": "address"
        },
        {
          "internalType": "uint256",
          "name": "tokenId",
          "type": "uint256"
        }
      ],
      "name": "approve",
      "outputs": [],
      "stateMutability": "nonpayable",
      "type": "function"
    },
    {
      "inputs": [
        {
          "internalType": "uint256",
          "name": "tokenId",
          "type": "uint256"
        }
      ],
      "name": "getApproved",
      "outputs": [
        {
          "internalType": "address",
          "name": "",
          "type": "address"
        }
      ],
      "stateMutability": "view",
      "type": "function"
    },
    {
      "inputs": [
        {
          "internalType": "address",
          "name": "operator",
          "type": "address"
        },
        {
          "internalType": "bool",
          "name": "approved",
          "type": "bool"
        }
      ],
      "name": "setApprovalForAll",
      "outputs": [],
      "stateMutability": "nonpayable",
      "type": "function"
    },
    {
      "inputs": [
        {
          "internalType": "address",
          "name": "owner",
          "type": "address"
        },
        {
          "internalType": "address",
          "name": "operator",
          "type": "address"
        }
      ],
      "name": "isApprovedForAll",
      "outputs": [
        {
          "internalType": "bool",
          "name": "",
          "type": "bool"
        }
      ],
      "stateMutability": "view",
      "type": "function"
    },
    {
      "inputs": [
        {
          "internalType": "address",
          "name": "from",
          "type": "address"
        },
        {
          "internalType": "address",
          "name": "to",
          "type": "address"
        },
        {
          "internalType": "uint256",
          "name": "tokenId",
          "type": "uint256"
        }
      ],
      "name": "transferFrom",
      "outputs": [],
      "stateMutability": "nonpayable",
      "type": "function"
    },
    {
      "inputs": [
        {
          "internalType": "address",
          "name": "from",
          "type": "address"
        },
        {
          "internalType": "address",
          "name": "to",
          "type": "address"
        },
        {
          "internalType": "uint256",
          "name": "tokenId",
          "type": "uint256"
        }
      ],
      "name": "safeTransferFrom",
      "outputs": [],
      "stateMutability": "nonpayable",
      "type": "function"
    },
    {
      "inputs": [
        {
          "internalType": "address",
          "name": "from",
          "type": "address"
        },
        {
          "internalType": "address",
          "name": "to",
          "type": "address"
        },
        {
          "internalType": "uint256",
          "name": "tokenId",
          "type": "uint256"
        },
        {
          "internalType": "bytes",
          "name": "_data",
          "type": "bytes"
        }
      ],
      "name": "safeTransferFrom",
      "outputs": [],
      "stateMutability": "nonpayable",
      "type": "function"
    }
  ],
  "bytecode": "0x60c06040526000805560006007553480156200001a57600080fd5b5060405162001b9f38038062001b9f8339810160408190526200003d9162000223565b60008111620000695760405162461bcd60e51b81526004016200006090620002e1565b60405180910390fd5b600082116200008c5760405162461bcd60e51b815260040162000060906200029a565b8351620000a1906001906020870190620000ca565b508251620000b7906002906020860190620000ca565b5060a09190915260805250620003829050565b828054620000d8906200032f565b90600052602060002090601f016020900481019282620000fc576000855562000147565b82601f106200011757805160ff191683800117855562000147565b8280016001018555821562000147579182015b82811115620001475782518255916020019190600101906200012a565b506200015592915062000159565b5090565b5b808211156200015557600081556001016200015a565b600082601f83011262000181578081fd5b81516001600160401b03808211156200019e576200019e6200036c565b604051601f8301601f19908116603f01168101908282118183101715620001c957620001c96200036c565b81604052838152602092508683858801011115620001e5578485fd5b8491505b83821015620002085785820183015181830184015290820190620001e9565b838211156200021957848385830101525b9695505050505050565b6000806000806080858703121562000239578384fd5b84516001600160401b038082111562000250578586fd5b6200025e8883890162000170565b9550602087015191508082111562000274578485fd5b50620002838782880162000170565b604087015160609097015195989097509350505050565b60208082526027908201527f455243373231413a206d61782062617463682073697a65206d757374206265206040820152666e6f6e7a65726f60c81b606082015260800190565b6020808252602e908201527f455243373231413a20636f6c6c656374696f6e206d757374206861766520612060408201526d6e6f6e7a65726f20737570706c7960901b606082015260800190565b6002810460018216806200034457607f821691505b602082108114156200036657634e487b7160e01b600052602260045260246000fd5b50919050565b634e487b7160e01b600052604160045260246000fd5b60805160a0516117f3620003ac60003960008181610b850152610baf0152600050506117f36000f3fe608060405234801561001057600080fd5b506004361061010b5760003560e01c80634f6ccce7116100a2578063a22cb46511610071578063a22cb46514610212578063b88d4fde14610225578063c87b56dd14610238578063d7224ba01461024b578063e985e9c5146102535761010b565b80634f6ccce7146101d15780636352211e146101e457806370a08231146101f757806395d89b411461020a5761010b565b806318160ddd116100de57806318160ddd1461018357806323b872dd146101985780632f745c59146101ab57806342842e0e146101be5761010b565b806301ffc9a71461011057806306fdde0314610139578063081812fc1461014e578063095ea7b31461016e575b600080fd5b61012361011e3660046110ac565b610266565b60405161013091906111a8565b60405180910390f35b6101416102c9565b60405161013091906111b3565b61016161015c3660046110e4565b61035b565b6040516101309190611157565b61018161017c366004611083565b6103a7565b005b61018b610440565b604051610130919061161f565b6101816101a6366004610f39565b610446565b61018b6101b9366004611083565b610451565b6101816101cc366004610f39565b61054d565b61018b6101df3660046110e4565b610568565b6101616101f23660046110e4565b610594565b61018b610205366004610eed565b6105a6565b6101416105f3565b610181610220366004611049565b610602565b610181610233366004610f74565b6106d0565b6101416102463660046110e4565b610709565b61018b61078c565b610123610261366004610f07565b610792565b60006001600160e01b031982166380ac58cd60e01b148061029757506001600160e01b03198216635b5e139f60e01b145b806102b257506001600160e01b0319821663780e9d6360e01b145b806102c157506102c1826107c0565b90505b919050565b6060600180546102d8906116f8565b80601f0160208091040260200160405190810160405280929190818152602001828054610304906116f8565b80156103515780601f1061032657610100808354040283529160200191610351565b820191906000526020600020905b81548152906001019060200180831161033457829003601f168201915b5050505050905090565b6000610366826107d9565b61038b5760405162461bcd60e51b8152600401610382906115d2565b60405180910390fd5b506000908152600560205260409020546001600160a01b031690565b60006103b282610594565b9050806001600160a01b0316836001600160a01b031614156103e65760405162461bcd60e51b8152600401610382906114a0565b806001600160a01b03166103f86107e0565b6001600160a01b031614806104145750610414816102616107e0565b6104305760405162461bcd60e51b8152600401610382906112da565b61043b8383836107e4565b505050565b60005490565b61043b838383610840565b600061045c836105a6565b821061047a5760405162461bcd60e51b8152600401610382906111c6565b6000610484610440565b905060008060005b8381101561052e576000818152600360209081526040918290208251808401909352546001600160a01b038116808452600160a01b90910467ffffffffffffffff1691830191909152156104df57805192505b876001600160a01b0316836001600160a01b0316141561051b578684141561050d5750935061054792505050565b8361051781611733565b9450505b508061052681611733565b91505061048c565b5060405162461bcd60e51b815260040161038290611535565b92915050565b61043b838383604051806020016040528060008152506106d0565b6000610572610440565b82106105905760405162461bcd60e51b815260040161038290611252565b5090565b600061059f82610b54565b5192915050565b60006001600160a01b0382166105ce5760405162461bcd60e51b815260040161038290611337565b506001600160a01b03166000908152600460205260409020546001600160801b031690565b6060600280546102d8906116f8565b61060a6107e0565b6001600160a01b0316826001600160a01b0316141561063b5760405162461bcd60e51b815260040161038290611417565b80600660006106486107e0565b6001600160a01b03908116825260208083019390935260409182016000908120918716808252919093529120805460ff19169215159290921790915561068c6107e0565b6001600160a01b03167f17307eab39ab6107e8899845ad3d59bd9653f200f220920489ca2b5937696c31836040516106c491906111a8565b60405180910390a35050565b6106db848484610840565b6106e784848484610c67565b6107035760405162461bcd60e51b8152600401610382906114e2565b50505050565b6060610714826107d9565b6107305760405162461bcd60e51b8152600401610382906113c8565b600061073a610d83565b9050600081511161075a5760405180602001604052806000815250610785565b8061076484610d95565b604051602001610775929190611128565b6040516020818303038152906040525b9392505050565b60075481565b6001600160a01b03918216600090815260066020908152604080832093909416825291909152205460ff1690565b6001600160e01b031981166301ffc9a760e01b14919050565b6000541190565b3390565b60008281526005602052604080822080546001600160a01b0319166001600160a01b0387811691821790925591518593918516917f8c5be1e5ebec7d5bd14f71427d1e84f3dd0314c0f7b2291e5b200ac8c7c3b92591a4505050565b600061084b82610b54565b9050600081600001516001600160a01b03166108656107e0565b6001600160a01b0316148061089a575061087d6107e0565b6001600160a01b031661088f8461035b565b6001600160a01b0316145b806108ae575081516108ae906102616107e0565b9050806108cd5760405162461bcd60e51b81526004016103829061144e565b846001600160a01b031682600001516001600160a01b0316146109025760405162461bcd60e51b815260040161038290611382565b6001600160a01b0384166109285760405162461bcd60e51b815260040161038290611295565b6109358585856001610703565b61094560008484600001516107e4565b6001600160a01b03851660009081526004602052604081208054600192906109779084906001600160801b0316611676565b82546101009290920a6001600160801b038181021990931691831602179091556001600160a01b038616600090815260046020526040812080546001945090926109c391859116611628565b82546001600160801b039182166101009390930a9283029190920219909116179055506040805180820182526001600160a01b03808716825267ffffffffffffffff428116602080850191825260008981526003909152948520935184549151909216600160a01b0267ffffffffffffffff60a01b19929093166001600160a01b03199091161716179055610a5984600161164a565b6000818152600360205260409020549091506001600160a01b0316610afe57610a81816107d9565b15610afe5760408051808201825284516001600160a01b03908116825260208087015167ffffffffffffffff90811682850190815260008781526003909352949091209251835494516001600160a01b031990951692169190911767ffffffffffffffff60a01b1916600160a01b93909116929092029190911790555b83856001600160a01b0316876001600160a01b03167fddf252ad1be2c89b69c2b068fc378daa952ba7f163c4a11628f55a4df523b3ef60405160405180910390a4610b4c8686866001610703565b505050505050565b610b5c610ebf565b610b65826107d9565b610b815760405162461bcd60e51b815260040161038290611208565b60007f00000000000000000000000000000000000000000000000000000000000000008310610be257610bd47f00000000000000000000000000000000000000000000000000000000000000008461169e565b610bdf90600161164a565b90505b825b818110610c4e576000818152600360209081526040918290208251808401909352546001600160a01b038116808452600160a01b90910467ffffffffffffffff169183019190915215610c3b5792506102c4915050565b5080610c46816116e1565b915050610be4565b5060405162461bcd60e51b815260040161038290611583565b6000610c7b846001600160a01b0316610eb0565b15610d7757836001600160a01b031663150b7a02610c976107e0565b8786866040518563ffffffff1660e01b8152600401610cb9949392919061116b565b602060405180830381600087803b158015610cd357600080fd5b505af1925050508015610d03575060408051601f3d908101601f19168201909252610d00918101906110c8565b60015b610d5d573d808015610d31576040519150601f19603f3d011682016040523d82523d6000602084013e610d36565b606091505b508051610d555760405162461bcd60e51b8152600401610382906114e2565b805181602001fd5b6001600160e01b031916630a85bd0160e11b149050610d7b565b5060015b949350505050565b60408051602081019091526000815290565b606081610dba57506040805180820190915260018152600360fc1b60208201526102c4565b8160005b8115610de45780610dce81611733565b9150610ddd9050600a83611662565b9150610dbe565b60008167ffffffffffffffff811115610e0d57634e487b7160e01b600052604160045260246000fd5b6040519080825280601f01601f191660200182016040528015610e37576020820181803683370190505b5090505b8415610d7b57610e4c60018361169e565b9150610e59600a8661174e565b610e6490603061164a565b60f81b818381518110610e8757634e487b7160e01b600052603260045260246000fd5b60200101906001600160f81b031916908160001a905350610ea9600a86611662565b9450610e3b565b6001600160a01b03163b151590565b604080518082019091526000808252602082015290565b80356001600160a01b03811681146102c457600080fd5b600060208284031215610efe578081fd5b61078582610ed6565b60008060408385031215610f19578081fd5b610f2283610ed6565b9150610f3060208401610ed6565b90509250929050565b600080600060608486031215610f4d578081fd5b610f5684610ed6565b9250610f6460208501610ed6565b9150604084013590509250925092565b60008060008060808587031215610f89578081fd5b610f9285610ed6565b9350610fa060208601610ed6565b925060408501359150606085013567ffffffffffffffff80821115610fc3578283fd5b818701915087601f830112610fd6578283fd5b813581811115610fe857610fe861178e565b604051601f8201601f19908116603f011681019083821181831017156110105761101061178e565b816040528281528a6020848701011115611028578586fd5b82602086016020830137918201602001949094529598949750929550505050565b6000806040838503121561105b578182fd5b61106483610ed6565b915060208301358015158114611078578182fd5b809150509250929050565b60008060408385031215611095578182fd5b61109e83610ed6565b946020939093013593505050565b6000602082840312156110bd578081fd5b8135610785816117a4565b6000602082840312156110d9578081fd5b8151610785816117a4565b6000602082840312156110f5578081fd5b5035919050565b600081518084526111148160208601602086016116b5565b601f01601f19169290920160200192915050565b6000835161113a8184602088016116b5565b83519083019061114e8183602088016116b5565b01949350505050565b6001600160a01b0391909116815260200190565b6001600160a01b038581168252841660208201526040810183905260806060820181905260009061119e908301846110fc565b9695505050505050565b901515815260200190565b60006020825261078560208301846110fc565b60208082526022908201527f455243373231413a206f776e657220696e646578206f7574206f6620626f756e604082015261647360f01b606082015260800190565b6020808252602a908201527f455243373231413a206f776e657220717565727920666f72206e6f6e657869736040820152693a32b73a103a37b5b2b760b11b606082015260800190565b60208082526023908201527f455243373231413a20676c6f62616c20696e646578206f7574206f6620626f756040820152626e647360e81b606082015260800190565b60208082526025908201527f455243373231413a207472616e7366657220746f20746865207a65726f206164604082015264647265737360d81b606082015260800190565b60208082526039908201527f455243373231413a20617070726f76652063616c6c6572206973206e6f74206f60408201527f776e6572206e6f7220617070726f76656420666f7220616c6c00000000000000606082015260800190565b6020808252602b908201527f455243373231413a2062616c616e636520717565727920666f7220746865207a60408201526a65726f206164647265737360a81b606082015260800190565b60208082526026908201527f455243373231413a207472616e736665722066726f6d20696e636f72726563746040820152651037bbb732b960d11b606082015260800190565b6020808252602f908201527f4552433732314d657461646174613a2055524920717565727920666f72206e6f60408201526e3732bc34b9ba32b73a103a37b5b2b760891b606082015260800190565b6020808252601a908201527f455243373231413a20617070726f766520746f2063616c6c6572000000000000604082015260600190565b60208082526032908201527f455243373231413a207472616e736665722063616c6c6572206973206e6f74206040820152711bdddb995c881b9bdc88185c1c1c9bdd995960721b606082015260800190565b60208082526022908201527f455243373231413a20617070726f76616c20746f2063757272656e74206f776e60408201526132b960f11b606082015260800190565b60208082526033908201527f455243373231413a207472616e7366657220746f206e6f6e204552433732315260408201527232b1b2b4bb32b91034b6b83632b6b2b73a32b960691b606082015260800190565b6020808252602e908201527f455243373231413a20756e61626c6520746f2067657420746f6b656e206f662060408201526d0deeedccae440c4f240d2dcc8caf60931b606082015260800190565b6020808252602f908201527f455243373231413a20756e61626c6520746f2064657465726d696e652074686560408201526e1037bbb732b91037b3103a37b5b2b760891b606082015260800190565b6020808252602d908201527f455243373231413a20617070726f76656420717565727920666f72206e6f6e6560408201526c3c34b9ba32b73a103a37b5b2b760991b606082015260800190565b90815260200190565b60006001600160801b0380831681851680830382111561114e5761114e611762565b6000821982111561165d5761165d611762565b500190565b60008261167157611671611778565b500490565b60006001600160801b038381169083168181101561169657611696611762565b039392505050565b6000828210156116b0576116b0611762565b500390565b60005b838110156116d05781810151838201526020016116b8565b838111156107035750506000910152565b6000816116f0576116f0611762565b506000190190565b60028104600182168061170c57607f821691505b6020821081141561172d57634e487b7160e01b600052602260045260246000fd5b50919050565b600060001982141561174757611747611762565b5060010190565b60008261175d5761175d611778565b500690565b634e487b7160e01b600052601160045260246000fd5b634e487b7160e01b600052601260045260246000fd5b634e487b7160e01b600052604160045260246000fd5b6001600160e01b0319811681146117ba57600080fd5b5056fea26469706673582212201c64fbd75c283be0ec15698da6fdefff30d2e060ed1c4fe8ad956c587a17783f64736f6c63430008010033",
  "immutableReferences": {
    "2049": [
      {
        "length": 32,
        "start": 2949
      },
      {
        "length": 32,
        "start": 2991
      }
    ]
  },
  "source": "// SPDX-License-Identifier: MIT\n\npragma solidity ^0.8.0;\n\nimport \"@openzeppelin/contracts/token/ERC721/IERC721.sol\";\nimport \"@openzeppelin/contracts/token/ERC721/IERC721Receiver.sol\";\nimport \"@openzeppelin/contracts/token/ERC721/extensions/IERC721Metadata.sol\";\nimport \"@openzeppelin/contracts/token/ERC721/extensions/IERC721Enumerable.sol\";\nimport \"@openzeppelin/contracts/utils/Address.sol\";\nimport \"@openzeppelin/contracts/utils/Context.sol\";\nimport \"@openzeppelin/contracts/utils/Strings.sol\";\nimport \"@openzeppelin/contracts/utils/introspection/ERC165.sol\";\n\n/**\n * @dev Implementation of https://eips.ethereum.org/EIPS/eip-721[ERC721] Non-Fungible Token Standard, including\n * the Metadata and Enumerable extension. Built to optimize for lower gas during batch mints.\n *\n * Assumes serials are sequentially minted starting at 0 (e.g. 0, 1, 2, 3..).\n *\n * Assumes the number of issuable tokens (collection size) is capped and fits in a uint128.\n *\n * Does not support burning tokens to address(0).\n */\ncontract ERC721A is\n  Context,\n  ERC165,\n  IERC721,\n  IERC721Metadata,\n  IERC721Enumerable\n{\n  using Address for address;\n  using Strings for uint256;\n\n  struct TokenOwnership {\n    address addr;\n    uint64 startTimestamp;\n  }\n\n  struct AddressData {\n    uint128 balance;\n    uint128 numberMinted;\n  }\n\n  uint256 private currentIndex = 0;\n\n  uint256 internal immutable collectionSize;\n  uint256 internal immutable maxBatchSize;\n\n  // Token name\n  string private _name;\n\n  // Token symbol\n  string private _symbol;\n\n  // Mapping from token ID to ownership details\n  // An empty struct value does not necessarily mean the token is unowned. See ownershipOf implementation for details.\n  mapping(uint256 => TokenOwnership) private _ownerships;\n\n  // Mapping owner address to address data\n  mapping(address => AddressData) private _addressData;\n\n  // Mapping from token ID to approved address\n  mapping(uint256 => address) private _tokenApprovals;\n\n  // Mapping from owner to operator approvals\n  mapping(address => mapping(address => bool)) private _operatorApprovals;\n\n  /**\n   * @dev\n   * `maxBatchSize` refers to how much a minter can mint at a time.\n   * `collectionSize_` refers to how many tokens are in the collection.\n   */\n  constructor(\n    string memory name_,\n    string memory symbol_,\n    uint256 maxBatchSize_,\n    uint256 collectionSize_\n  ) {\n    require(\n      collectionSize_ > 0,\n      \"ERC721A: collection must have a nonzero supply\"\n    );\n    require(maxBatchSize_ > 0, \"ERC721A: max batch size must be nonzero\");\n    _name = name_;\n    _symbol = symbol_;\n    maxBatchSize = maxBatchSize_;\n    collectionSize = collectionSize_;\n  }\n\n  /**\n   * @dev See {IERC721Enumerable-totalSupply}.\n   */\n  function totalSupply() public view override returns (uint256) {\n    return currentIndex;\n  }\n\n  /**\n   * @dev See {IERC721Enumerable-tokenByIndex}.\n   */\n  function tokenByIndex(uint256 index) public view override returns (uint256) {\n    require(index < totalSupply(), \"ERC721A: global index out of bounds\");\n    return index;\n  }\n\n  /**\n   * @dev See {IERC721Enumerable-tokenOfOwnerByIndex}.\n   * This read function is O(collectionSize). If calling from a separate contract, be sure to test gas first.\n   * It may also degrade with extremely large collection sizes (e.g >> 10000), test for your use case.\n   */\n  function tokenOfOwnerByIndex(address owner, uint256 index)\n    public\n    view\n    override\n    returns (uint256)\n  {\n    require(index < balanceOf(owner), \"ERC721A: owner index out of bounds\");\n    uint256 numMintedSoFar = totalSupply();\n    uint256 tokenIdsIdx = 0;\n    address currOwnershipAddr = address(0);\n    for (uint256 i = 0; i < numMintedSoFar; i++) {\n      TokenOwnership memory ownership = _ownerships[i];\n      if (ownership.addr != address(0)) {\n        currOwnershipAddr = ownership.addr;\n      }\n      if (currOwnershipAddr == owner) {\n        if (tokenIdsIdx == index) {\n          return i;\n        }\n        tokenIdsIdx++;\n      }\n    }\n    revert(\"ERC721A: unable to get token of owner by index\");\n  }\n\n  /**\n   * @dev See {IERC165-supportsInterface}.\n   */\n  function supportsInterface(bytes4 interfaceId)\n    public\n    view\n    virtual\n    override(ERC165, IERC165)\n    returns (bool)\n  {\n    return\n      interfaceId == type(IERC721).interfaceId ||\n      interfaceId == type(IERC721Metadata).interfaceId ||\n      interfaceId == type(IERC721Enumerable).interfaceId ||\n      super.supportsInterface(interfaceId);\n  }\n\n  /**\n   * @dev See {IERC721-balanceOf}.\n   */\n  function balanceOf(address owner) public view override returns (uint256) {\n    require(owner != address(0), \"ERC721A: balance query for the zero address\");\n    return uint256(_addressData[owner].balance);\n  }\n\n  function _numberMinted(address owner) internal view returns (uint256) {\n    require(\n      owner != address(0),\n      \"ERC721A: number minted query for the zero address\"\n    );\n    return uint256(_addressData[owner].numberMinted);\n  }\n\n  function ownershipOf(uint256 tokenId)\n    internal\n    view\n    returns (TokenOwnership memory)\n  {\n    require(_exists(tokenId), \"ERC721A: owner query for nonexistent token\");\n\n    uint256 lowestTokenToCheck;\n    if (tokenId >= maxBatchSize) {\n      lowestTokenToCheck = tokenId - maxBatchSize + 1;\n    }\n\n    for (uint256 curr = tokenId; curr >= lowestTokenToCheck; curr--) {\n      TokenOwnership memory ownership = _ownerships[curr];\n      if (ownership.addr != address(0)) {\n        return ownership;\n      }\n    }\n\n    revert(\"ERC721A: unable to determine the owner of token\");\n  }\n\n  /**\n   * @dev See {IERC721-ownerOf}.\n   */\n  function ownerOf(uint256 tokenId) public view override returns (address) {\n    return ownershipOf(tokenId).addr;\n  }\n\n  /**\n   * @dev See {IERC721Metadata-name}.\n   */\n  function name() public view virtual override returns (string memory) {\n    return _name;\n  }\n\n  /**\n   * @dev See {IERC721Metadata-symbol}.\n   */\n  function symbol() public view virtual override returns (string memory) {\n    return _symbol;\n  }\n\n  /**\n   * @dev See {IERC721Metadata-tokenURI}.\n   */\n  function tokenURI(uint256 tokenId)\n    public\n    view\n    virtual\n    override\n    returns (string memory)\n  {\n    require(\n      _exists(tokenId),\n      \"ERC721Metadata: URI query for nonexistent token\"\n    );\n\n    string memory baseURI = _baseURI();\n    return\n      bytes(baseURI).length > 0\n        ? string(abi.encodePacked(baseURI, tokenId.toString()))\n        : \"\";\n  }\n\n  /**\n   * @dev Base URI for computing {tokenURI}. If set, the resulting URI for each\n   * token will be the concatenation of the `baseURI` and the `tokenId`. Empty\n   * by default, can be overriden in child contracts.\n   */\n  function _baseURI() internal view virtual returns (string memory) {\n    return \"\";\n  }\n\n  /**\n   * @dev See {IERC721-approve}.\n   */\n  function approve(address to, uint256 tokenId) public override {\n    address owner = ERC721A.ownerOf(tokenId);\n    require(to != owner, \"ERC721A: approval to current owner\");\n\n    require(\n      _msgSender() == owner || isApprovedForAll(owner, _msgSender()),\n      \"ERC721A: approve caller is not owner nor approved for all\"\n    );\n\n    _approve(to, tokenId, owner);\n  }\n\n  /**\n   * @dev See {IERC721-getApproved}.\n   */\n  function getApproved(uint256 tokenId) public view override returns (address) {\n    require(_exists(tokenId), \"ERC721A: approved query for nonexistent token\");\n\n    return _tokenApprovals[tokenId];\n  }\n\n  /**\n   * @dev See {IERC721-setApprovalForAll}.\n   */\n  function setApprovalForAll(address operator, bool approved) public override {\n    require(operator != _msgSender(), \"ERC721A: approve to caller\");\n\n    _operatorApprovals[_msgSender()][operator] = approved;\n    emit ApprovalForAll(_msgSender(), operator, approved);\n  }\n\n  /**\n   * @dev See {IERC721-isApprovedForAll}.\n   */\n  function isApprovedForAll(address owner, address operator)\n    public\n    view\n    virtual\n    override\n    returns (bool)\n  {\n    return _operatorApprovals[owner][operator];\n  }\n\n  /**\n   * @dev See {IERC721-transferFrom}.\n   */\n  function transferFrom(\n    address from,\n    address to,\n    uint256 tokenId\n  ) public override {\n    _transfer(from, to, tokenId);\n  }\n\n  /**\n   * @dev See {IERC721-safeTransferFrom}.\n   */\n  function safeTransferFrom(\n    address from,\n    address to,\n    uint256 tokenId\n  ) public override {\n    safeTransferFrom(from, to, tokenId, \"\");\n  }\n\n  /**\n   * @dev See {IERC721-safeTransferFrom}.\n   */\n  function safeTransferFrom(\n    address from,\n    address to,\n    uint256 tokenId,\n    bytes memory _data\n  ) public override {\n    _transfer(from, to, tokenId);\n    require(\n      _checkOnERC721Received(from, to, tokenId, _data),\n      \"ERC721A: transfer to non ERC721Receiver implementer\"\n    );\n  }\n\n  /**\n   * @dev Returns whether `tokenId` exists.\n   *\n   * Tokens can be managed by their owner or approved accounts via {approve} or {setApprovalForAll}.\n   *\n   * Tokens start existing when they are minted (`_mint`),\n   */\n  function _exists(uint256 tokenId) internal view returns (bool) {\n    return tokenId < currentIndex;\n  }\n\n  function _safeMint(address to, uint256 quantity) internal {\n    _safeMint(to, quantity, \"\");\n  }\n\n  /**\n   * @dev Mints `quantity` tokens and transfers them to `to`.\n   *\n   * Requirements:\n   *\n   * - there must be `quantity` tokens remaining unminted in the total collection.\n   * - `to` cannot be the zero address.\n   * - `quantity` cannot be larger than the max batch size.\n   *\n   * Emits a {Transfer} event.\n   */\n  function _safeMint(\n    address to,\n    uint256 quantity,\n    bytes memory _data\n  ) internal {\n    uint256 startTokenId = currentIndex;\n    require(to != address(0), \"ERC721A: mint to the zero address\");\n    // We know if the first token in the batch doesn't exist, the other ones don't as well, because of serial ordering.\n    require(!_exists(startTokenId), \"ERC721A: token already minted\");\n    require(quantity <= maxBatchSize, \"ERC721A: quantity to mint too high\");\n\n    _beforeTokenTransfers(address(0), to, startTokenId, quantity);\n\n    AddressData memory addressData = _addressData[to];\n    _addressData[to] = AddressData(\n      addressData.balance + uint128(quantity),\n      addressData.numberMinted + uint128(quantity)\n    );\n    _ownerships[startTokenId] = TokenOwnership(to, uint64(block.timestamp));\n\n    uint256 updatedIndex = startTokenId;\n\n    for (uint256 i = 0; i < quantity; i++) {\n      emit Transfer(address(0), to, updatedIndex);\n      require(\n        _checkOnERC721Received(address(0), to, updatedIndex, _data),\n        \"ERC721A: transfer to non ERC721Receiver implementer\"\n      );\n      updatedIndex++;\n    }\n\n    currentIndex = updatedIndex;\n    _afterTokenTransfers(address(0), to, startTokenId, quantity);\n  }\n\n  /**\n   * @dev Transfers `tokenId` from `from` to `to`.\n   *\n   * Requirements:\n   *\n   * - `to` cannot be the zero address.\n   * - `tokenId` token must be owned by `from`.\n   *\n   * Emits a {Transfer} event.\n   */\n  function _transfer(\n    address from,\n    address to,\n    uint256 tokenId\n  ) private {\n    TokenOwnership memory prevOwnership = ownershipOf(tokenId);\n\n    bool isApprovedOrOwner = (_msgSender() == prevOwnership.addr ||\n      getApproved(tokenId) == _msgSender() ||\n      isApprovedForAll(prevOwnership.addr, _msgSender()));\n\n    require(\n      isApprovedOrOwner,\n      \"ERC721A: transfer caller is not owner nor approved\"\n    );\n\n    require(\n      prevOwnership.addr == from,\n      \"ERC721A: transfer from incorrect owner\"\n    );\n    require(to != address(0), \"ERC721A: transfer to the zero address\");\n\n    _beforeTokenTransfers(from, to, tokenId, 1);\n\n    // Clear approvals from the previous owner\n    _approve(address(0), tokenId, prevOwnership.addr);\n\n    _addressData[from].balance -= 1;\n    _addressData[to].balance += 1;\n    _ownerships[tokenId] = TokenOwnership(to, uint64(block.timestamp));\n\n    // If the ownership slot of tokenId+1 is not explicitly set, that means the transfer initiator owns it.\n    // Set the slot of tokenId+1 explicitly in storage to maintain correctness for ownerOf(tokenId+1) calls.\n    uint256 nextTokenId = tokenId + 1;\n    if (_ownerships[nextTokenId].addr == address(0)) {\n      if (_exists(nextTokenId)) {\n        _ownerships[nextTokenId] = TokenOwnership(\n          prevOwnership.addr,\n          prevOwnership.startTimestamp\n        );\n      }\n    }\n\n    emit Transfer(from, to, tokenId);\n    _afterTokenTransfers(from, to, tokenId, 1);\n  }\n\n  /**\n   * @dev Approve `to` to operate on `tokenId`\n   *\n   * Emits a {Approval} event.\n   */\n  function _approve(\n    address to,\n    uint256 tokenId,\n    address owner\n  ) private {\n    _tokenApprovals[tokenId] = to;\n    emit Approval(owner, to, tokenId);\n  }\n\n  uint256 public nextOwnerToExplicitlySet = 0;\n\n  /**\n   * @dev Explicitly set `owners` to eliminate loops in future calls of ownerOf().\n   */\n  function _setOwnersExplicit(uint256 quantity) internal {\n    uint256 oldNextOwnerToSet = nextOwnerToExplicitlySet;\n    require(quantity > 0, \"quantity must be nonzero\");\n    uint256 endIndex = oldNextOwnerToSet + quantity - 1;\n    if (endIndex > collectionSize - 1) {\n      endIndex = collectionSize - 1;\n    }\n    // We know if the last one in the group exists, all in the group exist, due to serial ordering.\n    require(_exists(endIndex), \"not enough minted yet for this cleanup\");\n    for (uint256 i = oldNextOwnerToSet; i <= endIndex; i++) {\n      if (_ownerships[i].addr == address(0)) {\n        TokenOwnership memory ownership = ownershipOf(i);\n        _ownerships[i] = TokenOwnership(\n          ownership.addr,\n          ownership.startTimestamp\n        );\n      }\n    }\n    nextOwnerToExplicitlySet = endIndex + 1;\n  }\n\n  /**\n   * @dev Internal function to invoke {IERC721Receiver-onERC721Received} on a target address.\n   * The call is not executed if the target address is not a contract.\n   *\n   * @param from address representing the previous owner of the given token ID\n   * @param to target address that will receive the tokens\n   * @param tokenId uint256 ID of the token to be transferred\n   * @param _data bytes optional data to send along with the call\n   * @return bool whether the call correctly returned the expected magic value\n   */\n  function _checkOnERC721Received(\n    address from,\n    address to,\n    uint256 tokenId,\n    bytes memory _data\n  ) private returns (bool) {\n    if (to.isContract()) {\n      try\n        IERC721Receiver(to).onERC721Received(_msgSender(), from, tokenId, _data)\n      returns (bytes4 retval) {\n        return retval == IERC721Receiver(to).onERC721Received.selector;\n      } catch (bytes memory reason) {\n        if (reason.length == 0) {\n          revert(\"ERC721A: transfer to non ERC721Receiver implementer\");\n        } else {\n          assembly {\n            revert(add(32, reason), mload(reason))\n          }\n        }\n      }\n    } else {\n      return true;\n    }\n  }\n\n  /**\n   * @dev Hook that is called before a set of serially-ordered token ids are about to be transferred. This includes minting.\n   *\n   * startTokenId - the first token id to be transferred\n   * quantity - the amount to be transferred\n   *\n   * Calling conditions:\n   *\n   * - When `from` and `to` are both non-zero, ``from``'s `tokenId` will be\n   * transferred to `to`.\n   * - When `from` is zero, `tokenId` will be minted for `to`.\n   */\n  function _beforeTokenTransfers(\n    address from,\n    address to,\n    uint256 startTokenId,\n    uint256 quantity\n  ) internal virtual {}\n\n  /**\n   * @dev Hook that is called after a set of serially-ordered token ids have been transferred. This includes\n   * minting.\n   *\n   * startTokenId - the first token id to be transferred\n   * quantity - the amount to be transferred\n   *\n   * Calling conditions:\n   *\n   * - when `from` and `to` are both non-zero.\n   * - `from` and `to` are never both zero.\n   */\n  function _afterTokenTransfers(\n    address from,\n    address to,\n    uint256 startTokenId,\n    uint256 quantity\n  ) internal virtual {}\n}",
  "sourcePath": "/Users/nftstack/Documents/GitHub/malbon-buckets/contracts/ERC721A.sol",
  "compiler": {
    "name": "solc",
    "version": "0.8.1+commit.df193b15.Emscripten.clang"
  },
  "schemaVersion": "3.4.7",
  "updatedAt": "2022-07-22T12:44:43.181Z",
  "devdoc": {
    "details": "Implementation of https://eips.ethereum.org/EIPS/eip-721[ERC721] Non-Fungible Token Standard, including the Metadata and Enumerable extension. Built to optimize for lower gas during batch mints. Assumes serials are sequentially minted starting at 0 (e.g. 0, 1, 2, 3..). Assumes the number of issuable tokens (collection size) is capped and fits in a uint128. Does not support burning tokens to address(0).",
    "kind": "dev",
    "methods": {
      "approve(address,uint256)": {
        "details": "See {IERC721-approve}."
      },
      "balanceOf(address)": {
        "details": "See {IERC721-balanceOf}."
      },
      "constructor": {
        "details": "`maxBatchSize` refers to how much a minter can mint at a time. `collectionSize_` refers to how many tokens are in the collection."
      },
      "getApproved(uint256)": {
        "details": "See {IERC721-getApproved}."
      },
      "isApprovedForAll(address,address)": {
        "details": "See {IERC721-isApprovedForAll}."
      },
      "name()": {
        "details": "See {IERC721Metadata-name}."
      },
      "ownerOf(uint256)": {
        "details": "See {IERC721-ownerOf}."
      },
      "safeTransferFrom(address,address,uint256)": {
        "details": "See {IERC721-safeTransferFrom}."
      },
      "safeTransferFrom(address,address,uint256,bytes)": {
        "details": "See {IERC721-safeTransferFrom}."
      },
      "setApprovalForAll(address,bool)": {
        "details": "See {IERC721-setApprovalForAll}."
      },
      "supportsInterface(bytes4)": {
        "details": "See {IERC165-supportsInterface}."
      },
      "symbol()": {
        "details": "See {IERC721Metadata-symbol}."
      },
      "tokenByIndex(uint256)": {
        "details": "See {IERC721Enumerable-tokenByIndex}."
      },
      "tokenOfOwnerByIndex(address,uint256)": {
        "details": "See {IERC721Enumerable-tokenOfOwnerByIndex}. This read function is O(collectionSize). If calling from a separate contract, be sure to test gas first. It may also degrade with extremely large collection sizes (e.g >> 10000), test for your use case."
      },
      "tokenURI(uint256)": {
        "details": "See {IERC721Metadata-tokenURI}."
      },
      "totalSupply()": {
        "details": "See {IERC721Enumerable-totalSupply}."
      },
      "transferFrom(address,address,uint256)": {
        "details": "See {IERC721-transferFrom}."
      }
    },
    "version": 1
  },
  "userdoc": {
    "kind": "user",
    "methods": {},
    "version": 1
  }
}