{
  "contractName": "PourKokoNFT",
  "abi": [
    {
      "inputs": [
        {
          "internalType": "string",
          "name": "baseURI",
          "type": "string"
        },
        {
          "internalType": "uint256",
          "name": "maxBatchSize_",
          "type": "uint256"
        },
        {
          "internalType": "uint256",
          "name": "collectionSize_",
          "type": "uint256"
        }
      ],
      "stateMutability": "nonpayable",
      "type": "constructor"
    },
    {
      "anonymous": false,
      "inputs": [
        {
          "indexed": true,
          "internalType": "address",
          "name": "owner",
          "type": "address"
        },
        {
          "indexed": true,
          "internalType": "address",
          "name": "approved",
          "type": "address"
        },
        {
          "indexed": true,
          "internalType": "uint256",
          "name": "tokenId",
          "type": "uint256"
        }
      ],
      "name": "Approval",
      "type": "event"
    },
    {
      "anonymous": false,
      "inputs": [
        {
          "indexed": true,
          "internalType": "address",
          "name": "owner",
          "type": "address"
        },
        {
          "indexed": true,
          "internalType": "address",
          "name": "operator",
          "type": "address"
        },
        {
          "indexed": false,
          "internalType": "bool",
          "name": "approved",
          "type": "bool"
        }
      ],
      "name": "ApprovalForAll",
      "type": "event"
    },
    {
      "anonymous": false,
      "inputs": [
        {
          "indexed": false,
          "internalType": "uint256",
          "name": "tokenId",
          "type": "uint256"
        },
        {
          "indexed": false,
          "internalType": "address",
          "name": "sender",
          "type": "address"
        }
      ],
      "name": "AssetMinted",
      "type": "event"
    },
    {
      "anonymous": false,
      "inputs": [
        {
          "indexed": true,
          "internalType": "address",
          "name": "previousOwner",
          "type": "address"
        },
        {
          "indexed": true,
          "internalType": "address",
          "name": "newOwner",
          "type": "address"
        }
      ],
      "name": "OwnershipTransferred",
      "type": "event"
    },
    {
      "anonymous": false,
      "inputs": [
        {
          "indexed": false,
          "internalType": "bool",
          "name": "isMintActive",
          "type": "bool"
        }
      ],
      "name": "SaleActivation",
      "type": "event"
    },
    {
      "anonymous": false,
      "inputs": [
        {
          "indexed": true,
          "internalType": "address",
          "name": "from",
          "type": "address"
        },
        {
          "indexed": true,
          "internalType": "address",
          "name": "to",
          "type": "address"
        },
        {
          "indexed": true,
          "internalType": "uint256",
          "name": "tokenId",
          "type": "uint256"
        }
      ],
      "name": "Transfer",
      "type": "event"
    },
    {
      "inputs": [],
      "name": "allowListMaxMint",
      "outputs": [
        {
          "internalType": "uint256",
          "name": "",
          "type": "uint256"
        }
      ],
      "stateMutability": "view",
      "type": "function"
    },
    {
      "inputs": [
        {
          "internalType": "address",
          "name": "to",
          "type": "address"
        },
        {
          "internalType": "uint256",
          "name": "tokenId",
          "type": "uint256"
        }
      ],
      "name": "approve",
      "outputs": [],
      "stateMutability": "nonpayable",
      "type": "function"
    },
    {
      "inputs": [
        {
          "internalType": "address",
          "name": "owner",
          "type": "address"
        }
      ],
      "name": "balanceOf",
      "outputs": [
        {
          "internalType": "uint256",
          "name": "",
          "type": "uint256"
        }
      ],
      "stateMutability": "view",
      "type": "function"
    },
    {
      "inputs": [
        {
          "internalType": "uint256",
          "name": "tokenId",
          "type": "uint256"
        }
      ],
      "name": "getApproved",
      "outputs": [
        {
          "internalType": "address",
          "name": "",
          "type": "address"
        }
      ],
      "stateMutability": "view",
      "type": "function"
    },
    {
      "inputs": [
        {
          "internalType": "address",
          "name": "owner",
          "type": "address"
        },
        {
          "internalType": "address",
          "name": "operator",
          "type": "address"
        }
      ],
      "name": "isApprovedForAll",
      "outputs": [
        {
          "internalType": "bool",
          "name": "",
          "type": "bool"
        }
      ],
      "stateMutability": "view",
      "type": "function"
    },
    {
      "inputs": [],
      "name": "isClosedMintForever",
      "outputs": [
        {
          "internalType": "bool",
          "name": "",
          "type": "bool"
        }
      ],
      "stateMutability": "view",
      "type": "function"
    },
    {
      "inputs": [],
      "name": "isMintActive",
      "outputs": [
        {
          "internalType": "bool",
          "name": "",
          "type": "bool"
        }
      ],
      "stateMutability": "view",
      "type": "function"
    },
    {
      "inputs": [],
      "name": "isPreSaleMintActive",
      "outputs": [
        {
          "internalType": "bool",
          "name": "",
          "type": "bool"
        }
      ],
      "stateMutability": "view",
      "type": "function"
    },
    {
      "inputs": [],
      "name": "isSellOpen",
      "outputs": [
        {
          "internalType": "bool",
          "name": "",
          "type": "bool"
        }
      ],
      "stateMutability": "view",
      "type": "function"
    },
    {
      "inputs": [],
      "name": "maxPerAddressDuringMint",
      "outputs": [
        {
          "internalType": "uint256",
          "name": "",
          "type": "uint256"
        }
      ],
      "stateMutability": "view",
      "type": "function"
    },
    {
      "inputs": [],
      "name": "maximumAllowedTokensPerWallet",
      "outputs": [
        {
          "internalType": "uint256",
          "name": "",
          "type": "uint256"
        }
      ],
      "stateMutability": "view",
      "type": "function"
    },
    {
      "inputs": [],
      "name": "maximumMintSupply",
      "outputs": [
        {
          "internalType": "uint256",
          "name": "",
          "type": "uint256"
        }
      ],
      "stateMutability": "view",
      "type": "function"
    },
    {
      "inputs": [],
      "name": "mintPrice",
      "outputs": [
        {
          "internalType": "uint256",
          "name": "",
          "type": "uint256"
        }
      ],
      "stateMutability": "view",
      "type": "function"
    },
    {
      "inputs": [],
      "name": "name",
      "outputs": [
        {
          "internalType": "string",
          "name": "",
          "type": "string"
        }
      ],
      "stateMutability": "view",
      "type": "function"
    },
    {
      "inputs": [],
      "name": "nextOwnerToExplicitlySet",
      "outputs": [
        {
          "internalType": "uint256",
          "name": "",
          "type": "uint256"
        }
      ],
      "stateMutability": "view",
      "type": "function"
    },
    {
      "inputs": [],
      "name": "owner",
      "outputs": [
        {
          "internalType": "address",
          "name": "",
          "type": "address"
        }
      ],
      "stateMutability": "view",
      "type": "function"
    },
    {
      "inputs": [
        {
          "internalType": "uint256",
          "name": "tokenId",
          "type": "uint256"
        }
      ],
      "name": "ownerOf",
      "outputs": [
        {
          "internalType": "address",
          "name": "",
          "type": "address"
        }
      ],
      "stateMutability": "view",
      "type": "function"
    },
    {
      "inputs": [],
      "name": "preSaleMintPrice",
      "outputs": [
        {
          "internalType": "uint256",
          "name": "",
          "type": "uint256"
        }
      ],
      "stateMutability": "view",
      "type": "function"
    },
    {
      "inputs": [],
      "name": "renounceOwnership",
      "outputs": [],
      "stateMutability": "nonpayable",
      "type": "function"
    },
    {
      "inputs": [],
      "name": "root",
      "outputs": [
        {
          "internalType": "bytes32",
          "name": "",
          "type": "bytes32"
        }
      ],
      "stateMutability": "view",
      "type": "function"
    },
    {
      "inputs": [
        {
          "internalType": "address",
          "name": "from",
          "type": "address"
        },
        {
          "internalType": "address",
          "name": "to",
          "type": "address"
        },
        {
          "internalType": "uint256",
          "name": "tokenId",
          "type": "uint256"
        }
      ],
      "name": "safeTransferFrom",
      "outputs": [],
      "stateMutability": "nonpayable",
      "type": "function"
    },
    {
      "inputs": [
        {
          "internalType": "address",
          "name": "from",
          "type": "address"
        },
        {
          "internalType": "address",
          "name": "to",
          "type": "address"
        },
        {
          "internalType": "uint256",
          "name": "tokenId",
          "type": "uint256"
        },
        {
          "internalType": "bytes",
          "name": "_data",
          "type": "bytes"
        }
      ],
      "name": "safeTransferFrom",
      "outputs": [],
      "stateMutability": "nonpayable",
      "type": "function"
    },
    {
      "inputs": [
        {
          "internalType": "address",
          "name": "operator",
          "type": "address"
        },
        {
          "internalType": "bool",
          "name": "approved",
          "type": "bool"
        }
      ],
      "name": "setApprovalForAll",
      "outputs": [],
      "stateMutability": "nonpayable",
      "type": "function"
    },
    {
      "inputs": [
        {
          "internalType": "bytes4",
          "name": "interfaceId",
          "type": "bytes4"
        }
      ],
      "name": "supportsInterface",
      "outputs": [
        {
          "internalType": "bool",
          "name": "",
          "type": "bool"
        }
      ],
      "stateMutability": "view",
      "type": "function"
    },
    {
      "inputs": [],
      "name": "symbol",
      "outputs": [
        {
          "internalType": "string",
          "name": "",
          "type": "string"
        }
      ],
      "stateMutability": "view",
      "type": "function"
    },
    {
      "inputs": [
        {
          "internalType": "uint256",
          "name": "index",
          "type": "uint256"
        }
      ],
      "name": "tokenByIndex",
      "outputs": [
        {
          "internalType": "uint256",
          "name": "",
          "type": "uint256"
        }
      ],
      "stateMutability": "view",
      "type": "function"
    },
    {
      "inputs": [
        {
          "internalType": "address",
          "name": "owner",
          "type": "address"
        },
        {
          "internalType": "uint256",
          "name": "index",
          "type": "uint256"
        }
      ],
      "name": "tokenOfOwnerByIndex",
      "outputs": [
        {
          "internalType": "uint256",
          "name": "",
          "type": "uint256"
        }
      ],
      "stateMutability": "view",
      "type": "function"
    },
    {
      "inputs": [
        {
          "internalType": "uint256",
          "name": "tokenId",
          "type": "uint256"
        }
      ],
      "name": "tokenURI",
      "outputs": [
        {
          "internalType": "string",
          "name": "",
          "type": "string"
        }
      ],
      "stateMutability": "view",
      "type": "function"
    },
    {
      "inputs": [],
      "name": "totalSupply",
      "outputs": [
        {
          "internalType": "uint256",
          "name": "",
          "type": "uint256"
        }
      ],
      "stateMutability": "view",
      "type": "function"
    },
    {
      "inputs": [
        {
          "internalType": "address",
          "name": "from",
          "type": "address"
        },
        {
          "internalType": "address",
          "name": "to",
          "type": "address"
        },
        {
          "internalType": "uint256",
          "name": "tokenId",
          "type": "uint256"
        }
      ],
      "name": "transferFrom",
      "outputs": [],
      "stateMutability": "nonpayable",
      "type": "function"
    },
    {
      "inputs": [
        {
          "internalType": "address",
          "name": "newOwner",
          "type": "address"
        }
      ],
      "name": "transferOwnership",
      "outputs": [],
      "stateMutability": "nonpayable",
      "type": "function"
    },
    {
      "inputs": [
        {
          "internalType": "uint256",
          "name": "_count",
          "type": "uint256"
        }
      ],
      "name": "setMaximumAllowedTokensPerWallet",
      "outputs": [],
      "stateMutability": "nonpayable",
      "type": "function"
    },
    {
      "inputs": [
        {
          "internalType": "bool",
          "name": "val",
          "type": "bool"
        }
      ],
      "name": "setMintActive",
      "outputs": [],
      "stateMutability": "nonpayable",
      "type": "function"
    },
    {
      "inputs": [
        {
          "internalType": "uint256",
          "name": "maxMintSupply",
          "type": "uint256"
        }
      ],
      "name": "setMaxMintSupply",
      "outputs": [],
      "stateMutability": "nonpayable",
      "type": "function"
    },
    {
      "inputs": [
        {
          "internalType": "bool",
          "name": "_isPreSaleMintActive",
          "type": "bool"
        }
      ],
      "name": "setIsPreSaleMintActive",
      "outputs": [],
      "stateMutability": "nonpayable",
      "type": "function"
    },
    {
      "inputs": [
        {
          "internalType": "bool",
          "name": "_isSellOpen",
          "type": "bool"
        }
      ],
      "name": "setIsSellOpen",
      "outputs": [],
      "stateMutability": "nonpayable",
      "type": "function"
    },
    {
      "inputs": [
        {
          "internalType": "uint256",
          "name": "maxMint",
          "type": "uint256"
        }
      ],
      "name": "setAllowListMaxMint",
      "outputs": [],
      "stateMutability": "nonpayable",
      "type": "function"
    },
    {
      "inputs": [
        {
          "internalType": "address[]",
          "name": "addresses",
          "type": "address[]"
        }
      ],
      "name": "addToAllowList",
      "outputs": [],
      "stateMutability": "nonpayable",
      "type": "function"
    },
    {
      "inputs": [
        {
          "internalType": "address",
          "name": "addr",
          "type": "address"
        }
      ],
      "name": "checkIfOnAllowList",
      "outputs": [
        {
          "internalType": "bool",
          "name": "",
          "type": "bool"
        }
      ],
      "stateMutability": "view",
      "type": "function"
    },
    {
      "inputs": [
        {
          "internalType": "address[]",
          "name": "addresses",
          "type": "address[]"
        }
      ],
      "name": "removeFromAllowList",
      "outputs": [],
      "stateMutability": "nonpayable",
      "type": "function"
    },
    {
      "inputs": [
        {
          "internalType": "address",
          "name": "owner",
          "type": "address"
        }
      ],
      "name": "allowListClaimedBy",
      "outputs": [
        {
          "internalType": "uint256",
          "name": "",
          "type": "uint256"
        }
      ],
      "stateMutability": "view",
      "type": "function"
    },
    {
      "inputs": [
        {
          "internalType": "address",
          "name": "owner",
          "type": "address"
        }
      ],
      "name": "publicMintClaimed",
      "outputs": [
        {
          "internalType": "uint256",
          "name": "",
          "type": "uint256"
        }
      ],
      "stateMutability": "view",
      "type": "function"
    },
    {
      "inputs": [
        {
          "internalType": "uint256",
          "name": "val",
          "type": "uint256"
        }
      ],
      "name": "setReserveAtATime",
      "outputs": [],
      "stateMutability": "nonpayable",
      "type": "function"
    },
    {
      "inputs": [
        {
          "internalType": "uint256",
          "name": "val",
          "type": "uint256"
        }
      ],
      "name": "setMaxReserve",
      "outputs": [],
      "stateMutability": "nonpayable",
      "type": "function"
    },
    {
      "inputs": [
        {
          "internalType": "uint256",
          "name": "_price",
          "type": "uint256"
        }
      ],
      "name": "setMintPrice",
      "outputs": [],
      "stateMutability": "nonpayable",
      "type": "function"
    },
    {
      "inputs": [
        {
          "internalType": "uint256",
          "name": "_price",
          "type": "uint256"
        }
      ],
      "name": "setPreSaleMintPrice",
      "outputs": [],
      "stateMutability": "nonpayable",
      "type": "function"
    },
    {
      "inputs": [
        {
          "internalType": "string",
          "name": "baseURI",
          "type": "string"
        }
      ],
      "name": "setBaseURI",
      "outputs": [],
      "stateMutability": "nonpayable",
      "type": "function"
    },
    {
      "inputs": [],
      "name": "getMintPrice",
      "outputs": [
        {
          "internalType": "uint256",
          "name": "",
          "type": "uint256"
        }
      ],
      "stateMutability": "view",
      "type": "function"
    },
    {
      "inputs": [],
      "name": "getPreSaleMintPrice",
      "outputs": [
        {
          "internalType": "uint256",
          "name": "",
          "type": "uint256"
        }
      ],
      "stateMutability": "view",
      "type": "function"
    },
    {
      "inputs": [],
      "name": "getIsClosedMintForever",
      "outputs": [
        {
          "internalType": "bool",
          "name": "",
          "type": "bool"
        }
      ],
      "stateMutability": "view",
      "type": "function"
    },
    {
      "inputs": [],
      "name": "setIsClosedMintForever",
      "outputs": [],
      "stateMutability": "nonpayable",
      "type": "function"
    },
    {
      "inputs": [
        {
          "internalType": "bytes32",
          "name": "_root",
          "type": "bytes32"
        }
      ],
      "name": "setRoot",
      "outputs": [],
      "stateMutability": "nonpayable",
      "type": "function"
    },
    {
      "inputs": [],
      "name": "getReserveAtATime",
      "outputs": [
        {
          "internalType": "uint256",
          "name": "",
          "type": "uint256"
        }
      ],
      "stateMutability": "view",
      "type": "function"
    },
    {
      "inputs": [],
      "name": "getTotalSupply",
      "outputs": [
        {
          "internalType": "uint256",
          "name": "",
          "type": "uint256"
        }
      ],
      "stateMutability": "view",
      "type": "function"
    },
    {
      "inputs": [],
      "name": "getRoot",
      "outputs": [
        {
          "internalType": "bytes32",
          "name": "",
          "type": "bytes32"
        }
      ],
      "stateMutability": "view",
      "type": "function"
    },
    {
      "inputs": [],
      "name": "getContractOwner",
      "outputs": [
        {
          "internalType": "address",
          "name": "",
          "type": "address"
        }
      ],
      "stateMutability": "view",
      "type": "function"
    },
    {
      "inputs": [],
      "name": "reserveNft",
      "outputs": [],
      "stateMutability": "nonpayable",
      "type": "function"
    },
    {
      "inputs": [
        {
          "internalType": "address",
          "name": "_walletAddress",
          "type": "address"
        },
        {
          "internalType": "uint256",
          "name": "_count",
          "type": "uint256"
        }
      ],
      "name": "reserveToCustomWallet",
      "outputs": [],
      "stateMutability": "nonpayable",
      "type": "function"
    },
    {
      "inputs": [
        {
          "internalType": "address",
          "name": "_to",
          "type": "address"
        },
        {
          "internalType": "uint256",
          "name": "_count",
          "type": "uint256"
        }
      ],
      "name": "mint",
      "outputs": [],
      "stateMutability": "payable",
      "type": "function"
    },
    {
      "inputs": [
        {
          "internalType": "uint256",
          "name": "_count",
          "type": "uint256"
        },
        {
          "internalType": "bytes32[]",
          "name": "_proof",
          "type": "bytes32[]"
        }
      ],
      "name": "preSaleMint",
      "outputs": [],
      "stateMutability": "payable",
      "type": "function"
    },
    {
      "inputs": [
        {
          "internalType": "address",
          "name": "owner",
          "type": "address"
        }
      ],
      "name": "numberMinted",
      "outputs": [
        {
          "internalType": "uint256",
          "name": "",
          "type": "uint256"
        }
      ],
      "stateMutability": "view",
      "type": "function"
    },
    {
      "inputs": [
        {
          "internalType": "address",
          "name": "_owner",
          "type": "address"
        }
      ],
      "name": "walletOfOwner",
      "outputs": [
        {
          "internalType": "uint256[]",
          "name": "",
          "type": "uint256[]"
        }
      ],
      "stateMutability": "view",
      "type": "function"
    },
    {
      "inputs": [],
      "name": "withdraw",
      "outputs": [],
      "stateMutability": "nonpayable",
      "type": "function"
    }
  ],
  "bytecode": "0x60e06040526000808055600781905566e6ed27d6668000600a5566d8b72d434c8000600b5560a5600c55600d556101ef600e556010805463ffffffff1916905561138360115560056012819055601355601480546001600160a01b0319908116739f54b3f09d7d9e83c2d4dcd8c85736e97474edeb1790915560158054909116730d00ab8041b966f120410e82df789ad6595a1f7d179055348015620000a457600080fd5b5060405162003efa38038062003efa833981016040819052620000c79162000309565b6040518060400160405280600d81526020016c1413d5548812d3d2d3c8139195609a1b8152506040518060400160405280600d81526020016c1413d5548812d3d2d3c8139195609a1b815250838360008111620001415760405162461bcd60e51b815260040162000138906200043a565b60405180910390fd5b60008211620001645760405162461bcd60e51b81526004016200013890620003f3565b83516200017990600190602087019062000263565b5082516200018f90600290602086019062000263565b5060a09190915260805250620001b09050620001aa620001c6565b620001ca565b620001bb836200021c565b5060c05250620004db565b3390565b600880546001600160a01b038381166001600160a01b0319831681179093556040519116919082907f8be0079c531659141344cd1fd0a4f28419497f9722a3daafe3b4186f6b6457e090600090a35050565b336200022762000254565b6001600160a01b0316146200023b57600080fd5b80516200025090600f90602084019062000263565b5050565b6008546001600160a01b031690565b828054620002719062000488565b90600052602060002090601f016020900481019282620002955760008555620002e0565b82601f10620002b057805160ff1916838001178555620002e0565b82800160010185558215620002e0579182015b82811115620002e0578251825591602001919060010190620002c3565b50620002ee929150620002f2565b5090565b5b80821115620002ee5760008155600101620002f3565b6000806000606084860312156200031e578283fd5b83516001600160401b038082111562000335578485fd5b818601915086601f83011262000349578485fd5b8151818111156200035e576200035e620004c5565b604051601f8201601f19908116603f01168101908382118183101715620003895762000389620004c5565b81604052828152602093508984848701011115620003a5578788fd5b8791505b82821015620003c85784820184015181830185015290830190620003a9565b82821115620003d957878484830101525b928801516040909801519299979850919695505050505050565b60208082526027908201527f455243373231413a206d61782062617463682073697a65206d757374206265206040820152666e6f6e7a65726f60c81b606082015260800190565b6020808252602e908201527f455243373231413a20636f6c6c656374696f6e206d757374206861766520612060408201526d6e6f6e7a65726f20737570706c7960901b606082015260800190565b6002810460018216806200049d57607f821691505b60208210811415620004bf57634e487b7160e01b600052602260045260246000fd5b50919050565b634e487b7160e01b600052604160045260246000fd5b60805160a05160c0516139dd6200051d600039600081816110d801526118fc01526000818161223e01528181612268015261265b0152600050506139dd6000f3fe6080604052600436106103b75760003560e01c80637389fbb7116101f2578063c87b56dd1161010d578063ebf0c717116100a0578063f2fde38b1161006f578063f2fde38b14610a25578063f4a0a52814610a45578063f6c9d9e314610a65578063f7cb9e5414610a85576103b7565b8063ebf0c717146109c6578063ec7d0991146109db578063ee1cc944146109f0578063f132dc2914610a10576103b7565b8063dc33e681116100dc578063dc33e68114610951578063e7b62d9614610971578063e985e9c514610986578063ea6eb836146109a6576103b7565b8063c87b56dd146108e7578063cadf881814610907578063d7224ba01461091c578063dab5f34014610931576103b7565b806395d89b4111610185578063a51312c811610154578063a51312c81461087d578063a7f93ebd1461089d578063b88d4fde146108b2578063c4e41b22146108d2576103b7565b806395d89b411461081357806398590a39146108285780639ccb0fea14610848578063a22cb4651461085d576103b7565b80637f44ab2f116101c15780637f44ab2f146107bf5780638bc35c2f146107d45780638da5cb5b146107e9578063932ecebc146107fe576103b7565b80637389fbb71461074a57806377b501b91461076a5780637a6685f11461078a5780637d26f470146107aa576103b7565b8063431adcb1116102e25780635b92ac0d1161027557806370a082311161024457806370a08231146106e0578063715018a61461070057806371e3500c146107155780637263cfe21461072a576103b7565b80635b92ac0d146106815780635ca1e165146106965780636352211e146106ab5780636817c76c146106cb576103b7565b80634d0550de116102b15780634d0550de1461060c5780634f6ccce71461062157806355f804b31461064157806356a87caa14610661576103b7565b8063431adcb1146105a2578063438b6300146105b7578063442890d5146105e45780634c220f6e146105f9576103b7565b806323b872dd1161035a5780633ccfd60b116103295780633ccfd60b1461053a5780633cfac5701461054f57806340c10f191461056f57806342842e0e14610582576103b7565b806323b872dd146104ba5780632c1205f4146104da5780632f745c59146104fa5780633b9ee7e41461051a576103b7565b8063081812fc11610396578063081812fc14610441578063095ea7b31461046e57806318160ddd1461049057806321a911f8146104a5576103b7565b806208ffdd146103bc57806301ffc9a7146103f257806306fdde031461041f575b600080fd5b3480156103c857600080fd5b506103dc6103d7366004612a36565b610aa5565b6040516103e99190612e6e565b60405180910390f35b3480156103fe57600080fd5b5061041261040d366004612c27565b610af6565b6040516103e99190612e63565b34801561042b57600080fd5b50610434610b57565b6040516103e99190612e77565b34801561044d57600080fd5b5061046161045c366004612c0f565b610be9565b6040516103e99190612dce565b34801561047a57600080fd5b5061048e610489366004612b5e565b610c2c565b005b34801561049c57600080fd5b506103dc610cc5565b3480156104b157600080fd5b506103dc610ccb565b3480156104c657600080fd5b5061048e6104d5366004612a82565b610cd1565b3480156104e657600080fd5b506104126104f5366004612a36565b610cdc565b34801561050657600080fd5b506103dc610515366004612b5e565b610cfa565b34801561052657600080fd5b5061048e610535366004612c0f565b610def565b34801561054657600080fd5b5061048e610e10565b34801561055b57600080fd5b5061048e61056a366004612bf5565b610f28565b61048e61057d366004612b5e565b610f5e565b34801561058e57600080fd5b5061048e61059d366004612a82565b6111ae565b3480156105ae57600080fd5b506104126111c9565b3480156105c357600080fd5b506105d76105d2366004612a36565b6111d9565b6040516103e99190612e1f565b3480156105f057600080fd5b50610461611296565b61048e610607366004612ca4565b6112a5565b34801561061857600080fd5b506103dc61145b565b34801561062d57600080fd5b506103dc61063c366004612c0f565b611461565b34801561064d57600080fd5b5061048e61065c366004612c5f565b61148d565b34801561066d57600080fd5b5061048e61067c366004612c0f565b6114bc565b34801561068d57600080fd5b506104126114dd565b3480156106a257600080fd5b506103dc6114e6565b3480156106b757600080fd5b506104616106c6366004612c0f565b6114ec565b3480156106d757600080fd5b506103dc6114fe565b3480156106ec57600080fd5b506103dc6106fb366004612a36565b611504565b34801561070c57600080fd5b5061048e611551565b34801561072157600080fd5b5061048e61159c565b34801561073657600080fd5b5061048e610745366004612b87565b611662565b34801561075657600080fd5b5061048e610765366004612c0f565b611820565b34801561077657600080fd5b5061048e610785366004612b5e565b611841565b34801561079657600080fd5b5061048e6107a5366004612c0f565b6118c4565b3480156107b657600080fd5b506104126118e5565b3480156107cb57600080fd5b506103dc6118f4565b3480156107e057600080fd5b506103dc6118fa565b3480156107f557600080fd5b5061046161191e565b34801561080a57600080fd5b5061048e61192d565b34801561081f57600080fd5b5061043461195c565b34801561083457600080fd5b5061048e610843366004612bf5565b61196b565b34801561085457600080fd5b506104126119a5565b34801561086957600080fd5b5061048e610878366004612b35565b6119b3565b34801561088957600080fd5b5061048e610898366004612b87565b611a81565b3480156108a957600080fd5b506103dc611b7b565b3480156108be57600080fd5b5061048e6108cd366004612abd565b611b81565b3480156108de57600080fd5b506103dc611bba565b3480156108f357600080fd5b50610434610902366004612c0f565b611bc4565b34801561091357600080fd5b506103dc611c47565b34801561092857600080fd5b506103dc611c4d565b34801561093d57600080fd5b5061048e61094c366004612c0f565b611c53565b34801561095d57600080fd5b506103dc61096c366004612a36565b611c74565b34801561097d57600080fd5b506103dc611c7f565b34801561099257600080fd5b506104126109a1366004612a50565b611c85565b3480156109b257600080fd5b5061048e6109c1366004612c0f565b611cb3565b3480156109d257600080fd5b506103dc611cd4565b3480156109e757600080fd5b506103dc611cda565b3480156109fc57600080fd5b5061048e610a0b366004612bf5565b611ce0565b348015610a1c57600080fd5b50610412611d45565b348015610a3157600080fd5b5061048e610a40366004612a36565b611d54565b348015610a5157600080fd5b5061048e610a60366004612c0f565b611dc5565b348015610a7157600080fd5b5061048e610a80366004612c0f565b611de6565b348015610a9157600080fd5b506103dc610aa0366004612a36565b611e07565b60006001600160a01b038216610ad65760405162461bcd60e51b8152600401610acd906132c1565b60405180910390fd5b506001600160a01b0381166000908152601760205260409020545b919050565b60006001600160e01b031982166380ac58cd60e01b1480610b2757506001600160e01b03198216635b5e139f60e01b145b80610b4257506001600160e01b0319821663780e9d6360e01b145b80610b515750610b5182611e4b565b92915050565b606060018054610b66906138e5565b80601f0160208091040260200160405190810160405280929190818152602001828054610b92906138e5565b8015610bdf5780601f10610bb457610100808354040283529160200191610bdf565b820191906000526020600020905b815481529060010190602001808311610bc257829003601f168201915b5050505050905090565b6000610bf482611e64565b610c105760405162461bcd60e51b8152600401610acd90613702565b506000908152600560205260409020546001600160a01b031690565b6000610c37826114ec565b9050806001600160a01b0316836001600160a01b03161415610c6b5760405162461bcd60e51b8152600401610acd9061342f565b806001600160a01b0316610c7d611e6b565b6001600160a01b03161480610c995750610c99816109a1611e6b565b610cb55760405162461bcd60e51b8152600401610acd90613167565b610cc0838383611e6f565b505050565b60005490565b600b5490565b610cc0838383611ecb565b6001600160a01b031660009081526016602052604090205460ff1690565b6000610d0583611504565b8210610d235760405162461bcd60e51b8152600401610acd90612e8a565b6000610d2d610cc5565b905060008060005b83811015610dd6576000818152600360209081526040918290208251808401909352546001600160a01b038116808452600160a01b9091046001600160401b03169183019190915215610d8757805192505b876001600160a01b0316836001600160a01b03161415610dc35786841415610db557509350610b5192505050565b83610dbf81613920565b9450505b5080610dce81613920565b915050610d35565b5060405162461bcd60e51b8152600401610acd906135f7565b33610df861191e565b6001600160a01b031614610e0b57600080fd5b600b55565b33610e1961191e565b6001600160a01b031614610e2c57600080fd5b60145447906001600160a01b03166108fc612710610e4c84611388613844565b610e569190613830565b6040518115909202916000818181858888f19350505050158015610e7e573d6000803e3d6000fd5b506015546001600160a01b03166108fc612710610e9d84611388613844565b610ea79190613830565b6040518115909202916000818181858888f19350505050158015610ecf573d6000803e3d6000fd5b50610ed861191e565b6001600160a01b03166108fc612710610ef2846000613844565b610efc9190613830565b6040518115909202916000818181858888f19350505050158015610f24573d6000803e3d6000fd5b5050565b33610f3161191e565b6001600160a01b031614610f4457600080fd5b601080549115156101000261ff0019909216919091179055565b601154610f69610cc5565b1115610f875760405162461bcd60e51b8152600401610acd90613071565b323314610fa65760405162461bcd60e51b8152600401610acd90613130565b610fae61191e565b6001600160a01b0316336001600160a01b031614610fe85760105460ff16610fe85760405162461bcd60e51b8152600401610acd90612f03565b610ff061191e565b6001600160a01b0316826001600160a01b03161461103d576012548161101584611504565b61101f9190613818565b111561103d5760405162461bcd60e51b8152600401610acd90612ff7565b6012543360009081526018602052604090205461105b908390613818565b11156110795760405162461bcd60e51b8152600401610acd90613645565b60115481611085610cc5565b61108f9190613818565b11156110ad5760405162461bcd60e51b8152600401610acd906133ff565b6011546110b8610cc5565b11156110d65760405162461bcd60e51b8152600401610acd90613593565b7f00000000000000000000000000000000000000000000000000000000000000008161110133611c74565b61110b9190613818565b11156111295760405162461bcd60e51b8152600401610acd90613563565b60105462010000900460ff16156111525760405162461bcd60e51b8152600401610acd90612fca565b80600a546111609190613844565b34101561117f5760405162461bcd60e51b8152600401610acd906135c0565b336000908152601860205260408120805483929061119e908490613818565b90915550610f24905082826121dd565b610cc083838360405180602001604052806000815250611b81565b6010546301000000900460ff1681565b606060006111e683611504565b90506000816001600160401b0381111561121057634e487b7160e01b600052604160045260246000fd5b604051908082528060200260200182016040528015611239578160200160208202803683370190505b50905060005b8281101561128e576112518582610cfa565b82828151811061127157634e487b7160e01b600052603260045260246000fd5b60209081029190910101528061128681613920565b91505061123f565b509392505050565b60006112a061191e565b905090565b6011546112b0610cc5565b11156112ce5760405162461bcd60e51b8152600401610acd90613071565b6000336040516020016112e19190612d82565b604051602081830303815290604052805190602001209050601060019054906101000a900460ff166113255760405162461bcd60e51b8152600401610acd906132f8565b600954611334908390836121f7565b6113505760405162461bcd60e51b8152600401610acd906134fb565b60115461135b610cc5565b106113785760405162461bcd60e51b8152600401610acd906136cb565b60135483111561139a5760405162461bcd60e51b8152600401610acd90613791565b601354336000908152601760205260409020546113b8908590613818565b11156113d65760405162461bcd60e51b8152600401610acd90613645565b82600b546113e49190613844565b3410156114035760405162461bcd60e51b8152600401610acd906135c0565b60105462010000900460ff161561142c5760405162461bcd60e51b8152600401610acd90612fca565b336000908152601760205260408120805485929061144b908490613818565b90915550610cc0905033846121dd565b60115481565b600061146b610cc5565b82106114895760405162461bcd60e51b8152600401610acd9061302e565b5090565b3361149661191e565b6001600160a01b0316146114a957600080fd5b8051610f2490600f90602084019061290c565b336114c561191e565b6001600160a01b0316146114d857600080fd5b600e55565b60105460ff1681565b60095490565b60006114f78261220d565b5192915050565b600a5481565b60006001600160a01b03821661152c5760405162461bcd60e51b8152600401610acd906131c4565b506001600160a01b03166000908152600460205260409020546001600160801b031690565b611559611e6b565b6001600160a01b031661156a61191e565b6001600160a01b0316146115905760405162461bcd60e51b8152600401610acd9061328c565b61159a600061231f565b565b336115a561191e565b6001600160a01b0316146115b857600080fd5b600e54600d5411156115dc5760405162461bcd60e51b8152600401610acd90612ecc565b601154600c546115ea610cc5565b6115f49190613818565b11156116125760405162461bcd60e51b8152600401610acd906133ff565b60115461161d610cc5565b111561163b5760405162461bcd60e51b8152600401610acd90613593565b600c54600d600082825461164f9190613818565b9250508190555061159a33600c546121dd565b3361166b61191e565b6001600160a01b03161461167e57600080fd5b60005b81811015610cc05760008383838181106116ab57634e487b7160e01b600052603260045260246000fd5b90506020020160208101906116c09190612a36565b6001600160a01b031614156116e75760405162461bcd60e51b8152600401610acd90613255565b60016016600085858581811061170d57634e487b7160e01b600052603260045260246000fd5b90506020020160208101906117229190612a36565b6001600160a01b0316815260208101919091526040016000908120805460ff19169215159290921790915560178185858581811061177057634e487b7160e01b600052603260045260246000fd5b90506020020160208101906117859190612a36565b6001600160a01b03166001600160a01b0316815260200190815260200160002054116117b257600061180d565b601760008484848181106117d657634e487b7160e01b600052603260045260246000fd5b90506020020160208101906117eb9190612a36565b6001600160a01b03166001600160a01b03168152602001908152602001600020545b508061181881613920565b915050611681565b3361182961191e565b6001600160a01b03161461183c57600080fd5b601155565b3361184a61191e565b6001600160a01b03161461185d57600080fd5b60115481611869610cc5565b6118739190613818565b11156118915760405162461bcd60e51b8152600401610acd906133ff565b60115461189c610cc5565b11156118ba5760405162461bcd60e51b8152600401610acd90613593565b610f2482826121dd565b336118cd61191e565b6001600160a01b0316146118e057600080fd5b601355565b60105462010000900460ff1681565b60135481565b7f000000000000000000000000000000000000000000000000000000000000000081565b6008546001600160a01b031690565b3361193661191e565b6001600160a01b03161461194957600080fd5b6010805462ff0000191662010000179055565b606060028054610b66906138e5565b3361197461191e565b6001600160a01b03161461198757600080fd5b6010805491151563010000000263ff00000019909216919091179055565b601054610100900460ff1681565b6119bb611e6b565b6001600160a01b0316826001600160a01b031614156119ec5760405162461bcd60e51b8152600401610acd90613376565b80600660006119f9611e6b565b6001600160a01b03908116825260208083019390935260409182016000908120918716808252919093529120805460ff191692151592909217909155611a3d611e6b565b6001600160a01b03167f17307eab39ab6107e8899845ad3d59bd9653f200f220920489ca2b5937696c3183604051611a759190612e63565b60405180910390a35050565b33611a8a61191e565b6001600160a01b031614611a9d57600080fd5b60005b81811015610cc0576000838383818110611aca57634e487b7160e01b600052603260045260246000fd5b9050602002016020810190611adf9190612a36565b6001600160a01b03161415611b065760405162461bcd60e51b8152600401610acd90613255565b600060166000858585818110611b2c57634e487b7160e01b600052603260045260246000fd5b9050602002016020810190611b419190612a36565b6001600160a01b031681526020810191909152604001600020805460ff191691151591909117905580611b7381613920565b915050611aa0565b600a5490565b611b8c848484611ecb565b611b9884848484612371565b611bb45760405162461bcd60e51b8152600401610acd90613471565b50505050565b60006112a0610cc5565b6060611bcf82611e64565b611beb5760405162461bcd60e51b8152600401610acd90613327565b6000611bf561248d565b90506000815111611c155760405180602001604052806000815250611c40565b80611c1f8461249c565b604051602001611c30929190612d9f565b6040516020818303038152906040525b9392505050565b60125481565b60075481565b33611c5c61191e565b6001600160a01b031614611c6f57600080fd5b600955565b6000610b51826125b6565b600c5490565b6001600160a01b03918216600090815260066020908152604080832093909416825291909152205460ff1690565b33611cbc61191e565b6001600160a01b031614611ccf57600080fd5b601255565b60095481565b600b5481565b33611ce961191e565b6001600160a01b031614611cfc57600080fd5b6010805460ff19168215151790556040517f58655b75d3df612fe99ead00dbf0812d415d35078fe06217a94c0818bb13967f90611d3a908390612e63565b60405180910390a150565b60105462010000900460ff1690565b611d5c611e6b565b6001600160a01b0316611d6d61191e565b6001600160a01b031614611d935760405162461bcd60e51b8152600401610acd9061328c565b6001600160a01b038116611db95760405162461bcd60e51b8152600401610acd90612f3a565b611dc28161231f565b50565b33611dce61191e565b6001600160a01b031614611de157600080fd5b600a55565b33611def61191e565b6001600160a01b031614611e0257600080fd5b600c55565b60006001600160a01b038216611e2f5760405162461bcd60e51b8152600401610acd906132c1565b506001600160a01b031660009081526018602052604090205490565b6001600160e01b031981166301ffc9a760e01b14919050565b6000541190565b3390565b60008281526005602052604080822080546001600160a01b0319166001600160a01b0387811691821790925591518593918516917f8c5be1e5ebec7d5bd14f71427d1e84f3dd0314c0f7b2291e5b200ac8c7c3b92591a4505050565b6000611ed68261220d565b9050600081600001516001600160a01b0316611ef0611e6b565b6001600160a01b03161480611f255750611f08611e6b565b6001600160a01b0316611f1a84610be9565b6001600160a01b0316145b80611f3957508151611f39906109a1611e6b565b905080611f585760405162461bcd60e51b8152600401610acd906133ad565b846001600160a01b031682600001516001600160a01b031614611f8d5760405162461bcd60e51b8152600401610acd9061320f565b6001600160a01b038416611fb35760405162461bcd60e51b8152600401610acd9061309a565b611fc08585856001611bb4565b611fd06000848460000151611e6f565b6001600160a01b03851660009081526004602052604081208054600192906120029084906001600160801b0316613863565b82546101009290920a6001600160801b038181021990931691831602179091556001600160a01b0386166000908152600460205260408120805460019450909261204e918591166137f6565b82546001600160801b039182166101009390930a9283029190920219909116179055506040805180820182526001600160a01b0380871682526001600160401b03428116602080850191825260008981526003909152948520935184549151909216600160a01b0267ffffffffffffffff60a01b19929093166001600160a01b031990911617161790556120e3846001613818565b6000818152600360205260409020549091506001600160a01b03166121875761210b81611e64565b156121875760408051808201825284516001600160a01b0390811682526020808701516001600160401b0390811682850190815260008781526003909352949091209251835494516001600160a01b031990951692169190911767ffffffffffffffff60a01b1916600160a01b93909116929092029190911790555b83856001600160a01b0316876001600160a01b03167fddf252ad1be2c89b69c2b068fc378daa952ba7f163c4a11628f55a4df523b3ef60405160405180910390a46121d58686866001611bb4565b505050505050565b610f2482826040518060200160405280600081525061260a565b600082612204858461287c565b14949350505050565b61221561298c565b61221e82611e64565b61223a5760405162461bcd60e51b8152600401610acd90612f80565b60007f0000000000000000000000000000000000000000000000000000000000000000831061229b5761228d7f00000000000000000000000000000000000000000000000000000000000000008461388b565b612298906001613818565b90505b825b818110612306576000818152600360209081526040918290208251808401909352546001600160a01b038116808452600160a01b9091046001600160401b031691830191909152156122f3579250610af1915050565b50806122fe816138ce565b91505061229d565b5060405162461bcd60e51b8152600401610acd9061367c565b600880546001600160a01b038381166001600160a01b0319831681179093556040519116919082907f8be0079c531659141344cd1fd0a4f28419497f9722a3daafe3b4186f6b6457e090600090a35050565b6000612385846001600160a01b03166128ee565b1561248157836001600160a01b031663150b7a026123a1611e6b565b8786866040518563ffffffff1660e01b81526004016123c39493929190612de2565b602060405180830381600087803b1580156123dd57600080fd5b505af192505050801561240d575060408051601f3d908101601f1916820190925261240a91810190612c43565b60015b612467573d80801561243b576040519150601f19603f3d011682016040523d82523d6000602084013e612440565b606091505b50805161245f5760405162461bcd60e51b8152600401610acd90613471565b805181602001fd5b6001600160e01b031916630a85bd0160e11b149050612485565b5060015b949350505050565b6060600f8054610b66906138e5565b6060816124c157506040805180820190915260018152600360fc1b6020820152610af1565b8160005b81156124eb57806124d581613920565b91506124e49050600a83613830565b91506124c5565b6000816001600160401b0381111561251357634e487b7160e01b600052604160045260246000fd5b6040519080825280601f01601f19166020018201604052801561253d576020820181803683370190505b5090505b84156124855761255260018361388b565b915061255f600a8661393b565b61256a906030613818565b60f81b81838151811061258d57634e487b7160e01b600052603260045260246000fd5b60200101906001600160f81b031916908160001a9053506125af600a86613830565b9450612541565b60006001600160a01b0382166125de5760405162461bcd60e51b8152600401610acd906130df565b506001600160a01b0316600090815260046020526040902054600160801b90046001600160801b031690565b6000546001600160a01b0384166126335760405162461bcd60e51b8152600401610acd90613522565b61263c81611e64565b156126595760405162461bcd60e51b8152600401610acd906134c4565b7f00000000000000000000000000000000000000000000000000000000000000008311156126995760405162461bcd60e51b8152600401610acd9061374f565b6126a66000858386611bb4565b6001600160a01b0384166000908152600460209081526040918290208251808401845290546001600160801b038082168352600160801b90910416918101919091528151808301909252805190919081906127029087906137f6565b6001600160801b0316815260200185836020015161272091906137f6565b6001600160801b039081169091526001600160a01b03808816600081815260046020908152604080832087518154988401518816600160801b029088166fffffffffffffffffffffffffffffffff199099169890981790961696909617909455845180860186529182526001600160401b034281168386019081528883526003909552948120915182549451909516600160a01b0267ffffffffffffffff60a01b19959093166001600160a01b031990941693909317939093161790915582905b8581101561286a5760405182906001600160a01b038916906000907fddf252ad1be2c89b69c2b068fc378daa952ba7f163c4a11628f55a4df523b3ef908290a461282e6000888488612371565b61284a5760405162461bcd60e51b8152600401610acd90613471565b8161285481613920565b925050808061286290613920565b9150506127e1565b5060008181556121d590878588611bb4565b600081815b845181101561128e5760008582815181106128ac57634e487b7160e01b600052603260045260246000fd5b602002602001015190508083116128ce576128c783826128fd565b92506128db565b6128d881846128fd565b92505b50806128e681613920565b915050612881565b6001600160a01b03163b151590565b60009182526020526040902090565b828054612918906138e5565b90600052602060002090601f01602090048101928261293a5760008555612980565b82601f1061295357805160ff1916838001178555612980565b82800160010185558215612980579182015b82811115612980578251825591602001919060010190612965565b506114899291506129a3565b604080518082019091526000808252602082015290565b5b8082111561148957600081556001016129a4565b60006001600160401b038311156129d1576129d161397b565b6129e4601f8401601f19166020016137c6565b90508281528383830111156129f857600080fd5b828260208301376000602084830101529392505050565b80356001600160a01b0381168114610af157600080fd5b80358015158114610af157600080fd5b600060208284031215612a47578081fd5b611c4082612a0f565b60008060408385031215612a62578081fd5b612a6b83612a0f565b9150612a7960208401612a0f565b90509250929050565b600080600060608486031215612a96578081fd5b612a9f84612a0f565b9250612aad60208501612a0f565b9150604084013590509250925092565b60008060008060808587031215612ad2578081fd5b612adb85612a0f565b9350612ae960208601612a0f565b92506040850135915060608501356001600160401b03811115612b0a578182fd5b8501601f81018713612b1a578182fd5b612b29878235602084016129b8565b91505092959194509250565b60008060408385031215612b47578182fd5b612b5083612a0f565b9150612a7960208401612a26565b60008060408385031215612b70578182fd5b612b7983612a0f565b946020939093013593505050565b60008060208385031215612b99578182fd5b82356001600160401b0380821115612baf578384fd5b818501915085601f830112612bc2578384fd5b813581811115612bd0578485fd5b8660208083028501011115612be3578485fd5b60209290920196919550909350505050565b600060208284031215612c06578081fd5b611c4082612a26565b600060208284031215612c20578081fd5b5035919050565b600060208284031215612c38578081fd5b8135611c4081613991565b600060208284031215612c54578081fd5b8151611c4081613991565b600060208284031215612c70578081fd5b81356001600160401b03811115612c85578182fd5b8201601f81018413612c95578182fd5b612485848235602084016129b8565b60008060408385031215612cb6578182fd5b823591506020808401356001600160401b0380821115612cd4578384fd5b818601915086601f830112612ce7578384fd5b813581811115612cf957612cf961397b565b8381029150612d098483016137c6565b8181528481019084860184860187018b1015612d23578788fd5b8795505b83861015612d45578035835260019590950194918601918601612d27565b508096505050505050509250929050565b60008151808452612d6e8160208601602086016138a2565b601f01601f19169290920160200192915050565b60609190911b6bffffffffffffffffffffffff1916815260140190565b60008351612db18184602088016138a2565b835190830190612dc58183602088016138a2565b01949350505050565b6001600160a01b0391909116815260200190565b6001600160a01b0385811682528416602082015260408101839052608060608201819052600090612e1590830184612d56565b9695505050505050565b6020808252825182820181905260009190848201906040850190845b81811015612e5757835183529284019291840191600101612e3b565b50909695505050505050565b901515815260200190565b90815260200190565b600060208252611c406020830184612d56565b60208082526022908201527f455243373231413a206f776e657220696e646578206f7574206f6620626f756e604082015261647360f01b606082015260800190565b6020808252601b908201527f4d61782052657365727665732074616b656e20616c7265616479210000000000604082015260600190565b6020808252601d908201527f53616c65206973206e6f74206163746976652063757272656e746c792e000000604082015260600190565b60208082526026908201527f4f776e61626c653a206e6577206f776e657220697320746865207a65726f206160408201526564647265737360d01b606082015260800190565b6020808252602a908201527f455243373231413a206f776e657220717565727920666f72206e6f6e657869736040820152693a32b73a103a37b5b2b760b11b606082015260800190565b60208082526013908201527226b4b73a1021b637b9b2b2102337b932bb32b960691b604082015260600190565b60208082526018908201527f4d617820686f6c64696e672063617020726561636865642e0000000000000000604082015260600190565b60208082526023908201527f455243373231413a20676c6f62616c20696e646578206f7574206f6620626f756040820152626e647360e81b606082015260800190565b6020808252600f908201526e29b0b632903430b99032b73232b21760891b604082015260600190565b60208082526025908201527f455243373231413a207472616e7366657220746f20746865207a65726f206164604082015264647265737360d81b606082015260800190565b60208082526031908201527f455243373231413a206e756d626572206d696e74656420717565727920666f7260408201527020746865207a65726f206164647265737360781b606082015260800190565b6020808252601e908201527f5468652063616c6c657220697320616e6f7468657220636f6e74726163740000604082015260600190565b60208082526039908201527f455243373231413a20617070726f76652063616c6c6572206973206e6f74206f60408201527f776e6572206e6f7220617070726f76656420666f7220616c6c00000000000000606082015260800190565b6020808252602b908201527f455243373231413a2062616c616e636520717565727920666f7220746865207a60408201526a65726f206164647265737360a81b606082015260800190565b60208082526026908201527f455243373231413a207472616e736665722066726f6d20696e636f72726563746040820152651037bbb732b960d11b606082015260800190565b60208082526018908201527f43616e2774206164642061206e756c6c20616464726573730000000000000000604082015260600190565b6020808252818101527f4f776e61626c653a2063616c6c6572206973206e6f7420746865206f776e6572604082015260600190565b6020808252601e908201527f5a65726f2061646472657373206e6f74206f6e20416c6c6f77204c6973740000604082015260600190565b60208082526015908201527450726553616c65206973206e6f742061637469766560581b604082015260600190565b6020808252602f908201527f4552433732314d657461646174613a2055524920717565727920666f72206e6f60408201526e3732bc34b9ba32b73a103a37b5b2b760891b606082015260800190565b6020808252601a908201527f455243373231413a20617070726f766520746f2063616c6c6572000000000000604082015260600190565b60208082526032908201527f455243373231413a207472616e736665722063616c6c6572206973206e6f74206040820152711bdddb995c881b9bdc88185c1c1c9bdd995960721b606082015260800190565b6020808252601690820152752a37ba30b61039bab838363c9032bc31b2b2b232b21760511b604082015260600190565b60208082526022908201527f455243373231413a20617070726f76616c20746f2063757272656e74206f776e60408201526132b960f11b606082015260800190565b60208082526033908201527f455243373231413a207472616e7366657220746f206e6f6e204552433732315260408201527232b1b2b4bb32b91034b6b83632b6b2b73a32b960691b606082015260800190565b6020808252601d908201527f455243373231413a20746f6b656e20616c7265616479206d696e746564000000604082015260600190565b6020808252600d908201526c34b73b30b634b210383937b7b360991b604082015260600190565b60208082526021908201527f455243373231413a206d696e7420746f20746865207a65726f206164647265736040820152607360f81b606082015260800190565b60208082526016908201527563616e206e6f74206d696e742074686973206d616e7960501b604082015260600190565b6020808252601390820152722a37ba30b61039bab838363c9039b832b73a1760691b604082015260600190565b6020808252601b908201527f496e7375666669656e742045544820616d6f756e742073656e742e0000000000604082015260600190565b6020808252602e908201527f455243373231413a20756e61626c6520746f2067657420746f6b656e206f662060408201526d0deeedccae440c4f240d2dcc8caf60931b606082015260800190565b6020808252601c908201527f50757263686173652065786365656473206d617820616c6c6f77656400000000604082015260600190565b6020808252602f908201527f455243373231413a20756e61626c6520746f2064657465726d696e652074686560408201526e1037bbb732b91037b3103a37b5b2b760891b606082015260800190565b6020808252601b908201527f416c6c20746f6b656e732068617665206265656e206d696e7465640000000000604082015260600190565b6020808252602d908201527f455243373231413a20617070726f76656420717565727920666f72206e6f6e6560408201526c3c34b9ba32b73a103a37b5b2b760991b606082015260800190565b60208082526022908201527f455243373231413a207175616e7469747920746f206d696e7420746f6f2068696040820152610ced60f31b606082015260800190565b6020808252818101527f43616e6e6f742070757263686173652074686973206d616e7920746f6b656e73604082015260600190565b604051601f8201601f191681016001600160401b03811182821017156137ee576137ee61397b565b604052919050565b60006001600160801b03808316818516808303821115612dc557612dc561394f565b6000821982111561382b5761382b61394f565b500190565b60008261383f5761383f613965565b500490565b600081600019048311821515161561385e5761385e61394f565b500290565b60006001600160801b03838116908316818110156138835761388361394f565b039392505050565b60008282101561389d5761389d61394f565b500390565b60005b838110156138bd5781810151838201526020016138a5565b83811115611bb45750506000910152565b6000816138dd576138dd61394f565b506000190190565b6002810460018216806138f957607f821691505b6020821081141561391a57634e487b7160e01b600052602260045260246000fd5b50919050565b60006000198214156139345761393461394f565b5060010190565b60008261394a5761394a613965565b500690565b634e487b7160e01b600052601160045260246000fd5b634e487b7160e01b600052601260045260246000fd5b634e487b7160e01b600052604160045260246000fd5b6001600160e01b031981168114611dc257600080fdfea2646970667358221220e8e81fd6b8390a5c7dffa982c915eb65fb5b608b21e1fc55243d93797dcacb1064736f6c63430008010033",
  "immutableReferences": {
    "989": [
      {
        "length": 32,
        "start": 8766
      },
      {
        "length": 32,
        "start": 8808
      },
      {
        "length": 32,
        "start": 9819
      }
    ],
    "2228": [
      {
        "length": 32,
        "start": 4312
      },
      {
        "length": 32,
        "start": 6396
      }
    ]
  },
  "source": "// SPDX-License-Identifier: MIT\n// Made by: NFT Stack\n//          https://nftstack.info\n//\n\npragma solidity ^0.8.1;\n\nimport \"@openzeppelin/contracts/access/Ownable.sol\";\nimport \"@openzeppelin/contracts/utils/cryptography/MerkleProof.sol\";\nimport \"./ERC721A.sol\";\n\ncontract PourKokoNFT is ERC721A, Ownable {\n  using MerkleProof for bytes32[];\n\n  bytes32 public root;\n\n  uint256 public mintPrice = 0.065 ether;\n  uint256 public preSaleMintPrice = 0.061 ether;\n\n  uint256 private reserveAtATime = 165;\n  uint256 private reservedCount = 0;\n  uint256 private maxReserveCount = 495;\n\n  string _baseTokenURI;\n\n  bool public isMintActive = false;\n  bool public isPreSaleMintActive = false;\n  bool public isClosedMintForever = false;\n  bool public isSellOpen = false;\n\n  uint256 public maximumMintSupply = 4995;\n  uint256 public maximumAllowedTokensPerWallet = 5;\n  uint256 public allowListMaxMint = 5;\n  uint256 public immutable maxPerAddressDuringMint;\n\n  address private OtherAddress1 = 0x9f54b3f09D7D9e83C2d4DCd8c85736e97474EDEb;\n  address private OtherAddress2 = 0x0d00ab8041B966F120410E82DF789Ad6595A1f7d;\n\n  mapping(address => bool) private _allowList;\n  mapping(address => uint256) private _allowListClaimed;\n  mapping(address => uint256) private _publicMintClaimed;\n\n  event AssetMinted(uint256 tokenId, address sender);\n  event SaleActivation(bool isMintActive);\n\n  constructor(\n    string memory baseURI,\n    uint256 maxBatchSize_,\n    uint256 collectionSize_\n  ) ERC721A(\"POUR KOKO NFT\", \"POUR KOKO NFT\", maxBatchSize_, collectionSize_) {\n    setBaseURI(baseURI);\n    maxPerAddressDuringMint = maxBatchSize_;\n  }\n\n  modifier saleIsOpen {\n    require(totalSupply() <= maximumMintSupply, \"Sale has ended.\");\n    _;\n  }\n\n  modifier onlyAuthorized() {\n    require(owner() == msg.sender);\n    _;\n  }\n\n  modifier callerIsUser() {\n    require(tx.origin == msg.sender, \"The caller is another contract\");\n    _;\n  }\n\n  function setMaximumAllowedTokensPerWallet(uint256 _count) public onlyAuthorized {\n    maximumAllowedTokensPerWallet = _count;\n  }\n\n  function setMintActive(bool val) public onlyAuthorized {\n    isMintActive = val;\n    emit SaleActivation(val);\n  }\n\n  function setMaxMintSupply(uint256 maxMintSupply) external  onlyAuthorized {\n    maximumMintSupply = maxMintSupply;\n  }\n\n  function setIsPreSaleMintActive(bool _isPreSaleMintActive) external onlyAuthorized {\n    isPreSaleMintActive = _isPreSaleMintActive;\n  }\n\n  function setIsSellOpen(bool _isSellOpen) external onlyAuthorized {\n    isSellOpen = _isSellOpen;\n  }\n\n  function setAllowListMaxMint(uint256 maxMint) external  onlyAuthorized {\n    allowListMaxMint = maxMint;\n  }\n\n  function addToAllowList(address[] calldata addresses) external onlyAuthorized {\n    for (uint256 i = 0; i < addresses.length; i++) {\n      require(addresses[i] != address(0), \"Can't add a null address\");\n      _allowList[addresses[i]] = true;\n      _allowListClaimed[addresses[i]] > 0 ? _allowListClaimed[addresses[i]] : 0;\n    }\n  }\n\n  function checkIfOnAllowList(address addr) external view returns (bool) {\n    return _allowList[addr];\n  }\n\n  function removeFromAllowList(address[] calldata addresses) external onlyAuthorized {\n    for (uint256 i = 0; i < addresses.length; i++) {\n      require(addresses[i] != address(0), \"Can't add a null address\");\n      _allowList[addresses[i]] = false;\n    }\n  }\n\n  function allowListClaimedBy(address owner) external view returns (uint256){\n    require(owner != address(0), 'Zero address not on Allow List');\n    return _allowListClaimed[owner];\n  }\n\n  function publicMintClaimed(address owner) external view returns (uint256){\n    require(owner != address(0), 'Zero address not on Allow List');\n    return _publicMintClaimed[owner];\n  }\n\n  function setReserveAtATime(uint256 val) public onlyAuthorized {\n    reserveAtATime = val;\n  }\n\n  function setMaxReserve(uint256 val) public onlyAuthorized {\n    maxReserveCount = val;\n  }\n\n  function setMintPrice(uint256 _price) public onlyAuthorized {\n    mintPrice = _price;\n  }\n\n  function setPreSaleMintPrice(uint256 _price) public onlyAuthorized {\n    preSaleMintPrice = _price;\n  }\n\n  function setBaseURI(string memory baseURI) public onlyAuthorized {\n    _baseTokenURI = baseURI;\n  }\n\n  function getMintPrice() external view returns (uint256) {\n    return mintPrice;\n  }\n\n  function getPreSaleMintPrice() external view returns (uint256) {\n    return preSaleMintPrice;\n  }\n\n  function getIsClosedMintForever() external view returns (bool) {\n    return isClosedMintForever;\n  }\n\n  function setIsClosedMintForever() external onlyAuthorized {\n    isClosedMintForever = true;\n  }\n\n  function setRoot(bytes32 _root) public onlyAuthorized {\n    root = _root;\n  }\n\n  function getReserveAtATime() external view returns (uint256) {\n    return reserveAtATime;\n  }\n\n  function getTotalSupply() external view returns (uint256) {\n    return totalSupply();\n  }\n\n  function getRoot() external view returns (bytes32) {\n    return root;\n  }\n\n  function getContractOwner() public view returns (address) {\n    return owner();\n  }\n\n  function _baseURI() internal view virtual override returns (string memory) {\n    return _baseTokenURI;\n  }\n\n  function reserveNft() public onlyAuthorized {\n    require(reservedCount <= maxReserveCount, \"Max Reserves taken already!\");\n    require(totalSupply() + reserveAtATime <= maximumMintSupply, \"Total supply exceeded.\");\n    require(totalSupply() <= maximumMintSupply, \"Total supply spent.\");\n\n    reservedCount += reserveAtATime;\n    _safeMint(msg.sender, reserveAtATime);\n  }\n\n  function reserveToCustomWallet(address _walletAddress, uint256 _count) public onlyAuthorized {\n    require(totalSupply() + _count <= maximumMintSupply, \"Total supply exceeded.\");\n    require(totalSupply() <= maximumMintSupply, \"Total supply spent.\");\n\n    _safeMint(_walletAddress, _count);\n  }\n\n  function mint(address _to, uint256 _count) public payable saleIsOpen callerIsUser {\n    if (msg.sender != owner()) {\n      require(isMintActive, \"Sale is not active currently.\");\n    }\n\n    if(_to != owner()) {\n      require(balanceOf(_to) + _count <= maximumAllowedTokensPerWallet, \"Max holding cap reached.\");\n    }\n\n    require(_publicMintClaimed[msg.sender] + _count <= maximumAllowedTokensPerWallet, \"Purchase exceeds max allowed\");\n    require(totalSupply() + _count <= maximumMintSupply, \"Total supply exceeded.\");\n    require(totalSupply() <= maximumMintSupply, \"Total supply spent.\");\n    require(\n      numberMinted(msg.sender) + _count <= maxPerAddressDuringMint,\n      \"can not mint this many\"\n    );\n    require(!isClosedMintForever, \"Mint Closed Forever\");\n    require(msg.value >= mintPrice * _count, \"Insuffient ETH amount sent.\");\n\n    _publicMintClaimed[msg.sender] += _count;\n    _safeMint(_to, _count);\n  }\n\n  function preSaleMint(uint256 _count, bytes32[] memory _proof) public payable saleIsOpen {\n    bytes32 leaf = keccak256(abi.encodePacked(msg.sender));\n\n    require(isPreSaleMintActive, \"PreSale is not active\");\n    require(_proof.verify(root, leaf), \"invalid proof\");\n    require(totalSupply() < maximumMintSupply, \"All tokens have been minted\");\n    require(_count <= allowListMaxMint, \"Cannot purchase this many tokens\");\n    require(_allowListClaimed[msg.sender] + _count <= allowListMaxMint, \"Purchase exceeds max allowed\");\n    require(msg.value >= preSaleMintPrice * _count, \"Insuffient ETH amount sent.\");\n    require(!isClosedMintForever, \"Mint Closed Forever\");\n    _allowListClaimed[msg.sender] += _count;\n\n    _safeMint(msg.sender, _count);\n  }\n\n  function numberMinted(address owner) public view returns (uint256) {\n    return _numberMinted(owner);\n  }\n\n  function walletOfOwner(address _owner) external view returns(uint256[] memory) {\n    uint tokenCount = balanceOf(_owner);\n    uint256[] memory tokensId = new uint256[](tokenCount);\n\n    for(uint i = 0; i < tokenCount; i++){\n      tokensId[i] = tokenOfOwnerByIndex(_owner, i);\n    }\n    return tokensId;\n  }\n\n  function withdraw() external onlyAuthorized {\n    uint balance = address(this).balance;\n    payable(OtherAddress1).transfer(balance * 5000 / 10000);\n    payable(OtherAddress2).transfer(balance * 5000 / 10000);\n    payable(owner()).transfer(balance * 0 / 10000);\n  }\n}",
  "sourcePath": "/Users/hrach/work/nft-stack/pour-koko-mint/contracts/PourKokoNFT.sol",
  "compiler": {
    "name": "solc",
    "version": "0.8.1+commit.df193b15.Emscripten.clang"
  },
  "schemaVersion": "3.4.10",
  "updatedAt": "2022-10-11T11:14:11.317Z",
  "devdoc": {
    "kind": "dev",
    "methods": {
      "approve(address,uint256)": {
        "details": "See {IERC721-approve}."
      },
      "balanceOf(address)": {
        "details": "See {IERC721-balanceOf}."
      },
      "getApproved(uint256)": {
        "details": "See {IERC721-getApproved}."
      },
      "isApprovedForAll(address,address)": {
        "details": "See {IERC721-isApprovedForAll}."
      },
      "name()": {
        "details": "See {IERC721Metadata-name}."
      },
      "owner()": {
        "details": "Returns the address of the current owner."
      },
      "ownerOf(uint256)": {
        "details": "See {IERC721-ownerOf}."
      },
      "renounceOwnership()": {
        "details": "Leaves the contract without owner. It will not be possible to call `onlyOwner` functions anymore. Can only be called by the current owner. NOTE: Renouncing ownership will leave the contract without an owner, thereby removing any functionality that is only available to the owner."
      },
      "safeTransferFrom(address,address,uint256)": {
        "details": "See {IERC721-safeTransferFrom}."
      },
      "safeTransferFrom(address,address,uint256,bytes)": {
        "details": "See {IERC721-safeTransferFrom}."
      },
      "setApprovalForAll(address,bool)": {
        "details": "See {IERC721-setApprovalForAll}."
      },
      "supportsInterface(bytes4)": {
        "details": "See {IERC165-supportsInterface}."
      },
      "symbol()": {
        "details": "See {IERC721Metadata-symbol}."
      },
      "tokenByIndex(uint256)": {
        "details": "See {IERC721Enumerable-tokenByIndex}."
      },
      "tokenOfOwnerByIndex(address,uint256)": {
        "details": "See {IERC721Enumerable-tokenOfOwnerByIndex}. This read function is O(collectionSize). If calling from a separate contract, be sure to test gas first. It may also degrade with extremely large collection sizes (e.g >> 10000), test for your use case."
      },
      "tokenURI(uint256)": {
        "details": "See {IERC721Metadata-tokenURI}."
      },
      "totalSupply()": {
        "details": "See {IERC721Enumerable-totalSupply}."
      },
      "transferFrom(address,address,uint256)": {
        "details": "See {IERC721-transferFrom}."
      },
      "transferOwnership(address)": {
        "details": "Transfers ownership of the contract to a new account (`newOwner`). Can only be called by the current owner."
      }
    },
    "version": 1
  },
  "userdoc": {
    "kind": "user",
    "methods": {},
    "version": 1
  }
}